:100000000C9432040C9479040C9479040C942F1001
:100010000C9479040C9479040C9479040C9479046C
:100020000C9479040C9479040C94FF200C94D32143
:100030000C943C1C0C9479040C9479040C94790471
:100040000C9479040C9479040C9479040C9479043C
:100050000C9479040C94931C0C9479040C947904FA
:100060000C9479040C9479040C9479040C9479041C
:100070000C9479040C9479040C9479040C9479040C
:100080000C9479040C9479040C9479040C947904FC
:100090000C9479040C9479040C9479040C947904EC
:1000A0000C9479040C9479040C94790429001E00B2
:1000B0001F002000210022002B0014001A0008005D
:1000C00015001700E00004001600070009000A00F0
:1000D000E1001D001B000600190005000000E20001
:1000E000E30001512C002F003500270026002500D9
:1000F000240023002D00130012000C0018001C0027
:10010000340033000F000E000D000B00E500380036
:1001100037003600100011000000E7002A000251ED
:100120002800300029003B003C003D003E003F001D
:100130002B001E021F02200221022202E00000000A
:100140000000000000000000E100000000000000CE
:10015000000000000000E2000100010001000100B9
:1001600056005500540000004600000057000000F3
:100170004D0052004A000000850000004F00510071
:1001800050000000670000000000000000000000B8
:10019000000001004C0001000100010029000000E6
:1001A000000000000000A6002B001E001F00200021
:1001B00021002200E000000000000000000000001C
:1001C000E100000000000000000000000000E2006C
:1001D0000100010001000100A900550054000000C9
:1001E00046000000AA0000004D0052004A00000036
:1001F000A80000004F005100500000006700000000
:100200000000000000000000000001004C000100A0
:100210000100010000AE00AF00DA02818FD9F1DBEE
:1002200040A4A62EAF00A0C000A1C800AED580A8F3
:100230001FD300408D1420000000000000003E5B32
:100240004F5B3E003E6B4F6B3E001C3E7C3E1C00F5
:10025000183C7E3C18001C577D571C001C5E7F5EBE
:100260001C0000183C180000FFE7C3E7FF0000185F
:1002700024180000FFE7DBE7FF0030483A060E00D5
:10028000262979292600407F05050700407F05259E
:100290003F005A3CE73C5A007F3E1C1C0800081CEB
:1002A0001C3E7F0014227F2214005F5F005F5F000E
:1002B00006097F017F00006689956A0060606060C2
:1002C000600094A2FFA2940008047E04080010209D
:1002D0007E20100008082A1C0800081C2A080800B4
:1002E0001E10101010000C1E0C1E0C0030383E3872
:1002F0003000060E3E0E0600000000000000000068
:100300005F000000000700070000147F147F140046
:10031000242A7F2A120023130864620036495620DB
:100320005000000807030000001C224100000041AB
:10033000221C00002A1C7F1C2A0008083E08080016
:1003400000807030000008080808080000006060A5
:1003500000002010080402003E5149453E000042C2
:100360007F4000007249494946002141494D330010
:100370001814127F10002745454539003C4A494969
:1003800031004121110907003649494936004649E3
:1003900049291E0000001400000000403400000045
:1003A00000081422410014141414140000412214F3
:1003B00008000201590906003E415D594E007C12B9
:1003C00011127C007F49494936003E4141412200DB
:1003D0007F4141413E007F49494941007F09090968
:1003E00001003E41415173007F0808087F00004131
:1003F0007F4100002040413F01007F08142241005E
:100400007F40404040007F021C027F007F040810B4
:100410007F003E4141413E007F09090906003E41FF
:1004200051215E007F0919294600264949493200B9
:1004300003017F0103003F4040403F001F20402058
:100440001F003F4038403F0063140814630003045A
:10045000780403006159494D4300007F4141410048
:10046000020408102000004141417F000402010203
:1004700004004040404040000003070800002054B2
:10048000547840007F2844443800384444442800CD
:10049000384444287F0038545454180000087E091A
:1004A00002001824241C78007F080404780000440B
:1004B0007D4000002040403D00007F1028440000A7
:1004C00000417F4000007C04780478007C0804042C
:1004D00078003844444438007C1824241800182438
:1004E00024187C007C080404080048545454240058
:1004F00004043F4424003C4040207C001C20402059
:100500001C003C4030403C004428102844004C90E3
:1005100090907C004464544C440000083641000034
:1005200000007700000000413608000002010204CC
:1005300002003C2623263C00000000000080808052
:1005400080000000000080E070180C1830E080008F
:100550000010F8901030783010B8FC38100000000F
:10056000000000F8FCF8000000000000000000009F
:100570000000001C9C1C00000000F8FCF8000000BB
:100580000000001CFCF8C000000000000080E0F843
:100590007C1C000000F0FCFCFC1C1C1C1C1C1C1C1B
:1005A0001C000000000000C0F0F8381C1C1C1C1CC3
:1005B0001C3CF8F0E000E0F0F0F0E0ECEEF7F37057
:1005C00020007C7C7C7E007E7E7E7F7F7F000080A2
:1005D000C0E07E5B4F5BFEC00000C000DCD7DEDE0B
:1005E000DED7DC00C00000000000000000000000BA
:1005F000000000000000000000000000000FBCE050
:10060000818181838382870C183060C000001FFEC7
:1006100090B9FFBB91983C1811133F1100000000E6
:10062000000000FFFFFF00000000000000000000CD
:10063000000000FFFFFF00000000FFFFFF000000C0
:100640000000000000030F7FF8E080F0FC3F0F0186
:1006500000000000003F3F3F1C1C1C1C1C3C78F8A5
:10066000F0E08000000000C3E7FF7E3C387878703F
:1006700070F8FFDF87000F1F3F7F7F7F7F7F3F1E68
:100680000C001F1F1F3F003F3F3F7F7F7F00307BDD
:100690007F7830202030787F3B0003000F7F0F0FE2
:1006A0000F7F0F00030000000000000000000000AA
:1006B0000000000000000000183C24666341C18176
:1006C00080808080808081C14162386C4CC681818D
:1006D000808080808081C14362361C180000000049
:1006E000000000FFFFFFC0C0C0C0C0C0C0C0C080CD
:1006F0000000007FFF7F000000007FFFFFC0800040
:100700000000E0E0C0C0C0E0F97F1F07000000006B
:10071000000000000070F0E0E0C0C0C0C0E0F0F8F1
:100720007F3F0F0000000F3F7FF9E0E0C0C0C0C076
:10073000C0E0F97F3F1F0000000000000000000043
:1007400000000000000000000000000000000000A9
:100750000000000000000000000000000000000099
:100760000000000000000000000000000000000089
:1007700000000000000000000403300000000E0331
:100780004C0069006C00790035003800000010034F
:100790006C0069006C00690075006D00730000005A
:1007A0000403090409023B00020100A0FA09040045
:1007B000000103010100092111010001224000078D
:1007C00005810308000A0904010001030000000973
:1007D00021110100012232000705820320000A12C4
:1007E00001100100000008D8042DEB0001010203F4
:1007F0000105010980A101850319012AB70015012E
:1008000026B700950175108100C0050C0901A101F2
:10081000850419012AA002150126A0029501751070
:100820008100C005010906A101050719E029E715A6
:100830000025019508750181029501750881010562
:1008400007190029FF150026FF009506750881008D
:100850000508190129059505750191029501750392
:100860009101C00011241FBECFEFDAE0DEBFCDBF83
:1008700004B603FE27C08091B4059091B505A09100
:10088000B605B091B7058730904BA740B04BD1F477
:100890001092B4051092B5051092B6051092B705E6
:1008A00014BE84B7877F84BF0FB6F894A895809153
:1008B0006000886180936000109260000FBEE0E0ED
:1008C000F8E3099512E0A0E0B1E0ECE0FEE402C03C
:1008D00005900D92AC36B107D9F725E0ACE6B2E051
:1008E00001C01D92A43BB207E1F70E943F1E0C9489
:1008F000E0260C94000080914C0390914D03A09150
:100900004E03B0914F0384309105A105B105E1F18B
:1009100028F50097A105B10571F169E771E0823012
:100920009105A105B10549F1BF93AF939F938F93B3
:1009300084E991E09F938F931F9288E18F938DE6D6
:1009400093E09F938F930E94C8238DB79EB70A961A
:100950000FB6F8949EBF0FBE8DBF13C088309105AF
:10096000A105B10529F08E309105A105B105E1F68B
:1009700066E871E002C06DE571E08DE693E00E94EB
:10098000C1238DE693E008956CE671E0F6CF80E038
:1009900091E00895CF93C0E28C33910520F4FC01DF
:1009A000EA54FE4FC0811F92CF939F938F93FB0118
:1009B00080811F928F9381811F928F9385EA91E0AE
:1009C0009F938F931F9288E18F9383E892E09F9388
:1009D0008F930E94C8238DB79EB70E960FB6F894DA
:1009E0009EBF0FBE8DBF80916C0290916D024497A7
:1009F00061F410926D0210926C02EEE6F2E080E279
:100A0000819392E0E238F907D9F780916C029091D6
:100A10006D02FC01E259FD4FC083019690936D0277
:100A200080936C02CF91089583E892E008958EE65A
:100A300092E008950C943E05CF93C82F0E941F09A1
:100A4000811101C0C2E08C2FCF9108950E941F092F
:100A5000882379F00E947B0460E00E940E0B0E94C4
:100A6000140560E00E940E0B0E94170560E00C94D4
:100A70000E0B0E94C70460E00C94F20AFB01228175
:100A800021110E94CA0481E0089581E0089508952B
:100A90000C9447051F93CF93DF9300D000D00F92A3
:100AA000CDB7DEB749835A836B833091EB028981DE
:100AB0009A8131111DC06623B9F02223A9F00E944A
:100AC000BA19182F682F89819A810E946319698148
:100AD0007A81812F0F900F900F900F900F90DF91E0
:100AE000CF911F910C94F6050E949119182FEFCF0A
:100AF0000E94BA1969817A81EDCFFC01262F4081CD
:100B000051816281738184810C944A05CF93DF9374
:100B1000EC0160E00E947D05BE01DF91CF910C9455
:100B200048050E94F11A811102C00E948E1B0C948C
:100B3000D1070C94D40708950C949B0581E0089587
:100B40000C949E05CF93C82F0E949C058C2FCF91AB
:100B50000C94A00508950E9454150E94AA052FEF39
:100B600084E39CE0215080409040E1F700C0000009
:100B70000C94B71C0F931F93CF93DF93EC0161E0AC
:100B80000E947D058C01BE010E941A05882329F16F
:100B9000BE01C8010E94F10C8823F9F0BE01C80112
:100BA0000E94430D8823C9F0BE01C8010E94660E51
:100BB000882399F08A81882339F001158CE518077C
:100BC00051F00E3D1C4579F0CE01DF91CF911F9180
:100BD0000F910C9445050E94AB0580E0DF91CF9109
:100BE0001F910F9108950E948E1BF7CF972F70E0F1
:100BF00026E0929F600D711D1124FB019CE3899FEB
:100C0000E00DF11D1124EE0FFF1FE455FF4F8591FC
:100C100094910895CF93DF930E94F6050E94F60603
:100C2000EC01811522E59207E8F5811531E593077E
:100C300008F0ACC0883E910510F5803E910570F536
:100C4000883A910570F4853A910508F078C08130B2
:100C5000910521F1009711F1049700F5D0E0C0E073
:100C60001DC08F3B9105D0F7C85AD0E0CC0FDD1FD7
:100C7000CE50DE4F0990D881C02DD4640FC08115AD
:100C800040E5940708F066C0C11580E4D80708F075
:100C90005EC0CE019A9581159F4100F7CE01DF918C
:100CA000CF910895811536E5930718F5811545E52F
:100CB000940708F083C0C11584E5D80708F079C00F
:100CC0009C2F969596959E0123703327C115D34589
:100CD00008F461C0C1E0D0E002C0CC0FDD1F2A954E
:100CE000E2F730E2939FC0011124C82BD92BDA68B8
:100CF000D5CFC1158AE5D80778F4C11599E5D9078C
:100D000008F066C0C11528E5D20708F4A7CFDC2F8C
:100D1000CC27C06FD06AC2CFCE01905681159042C9
:100D200008F09CCF8D2F8F710E948D0790E0982F37
:100D3000882788279F719C012C2BE90147C0C55A41
:100D4000D0E0C05EDD4FC881D0E0D064A7CFDF70B7
:100D5000D06AA4CFE4E096958795EA95E1F7837091
:100D60002C2F26952695237040E2249F9001112474
:100D7000382B8C2F8370C1E0D0E002C0CC0FDD1F78
:100D80008A95E2F7C22BD32BDC6888CFD82FCC27EB
:100D9000C16FD06A83CFC1E0D0E002C0CC0FDD1FAD
:100DA0002A95E2F720E2929FC0011124C82BD92B8B
:100DB000EBCFDC2FCC27C46FD06A70CF0E948D0799
:100DC000C82FD0E0DC2FCC27CC27DF71D06266CFD4
:100DD0008C2F8F700E948D0734E0D695C7953A9579
:100DE000E1F7CF709C2FEC01D06958CF8238910584
:100DF000B1F1B0F48133910509F475C048F489323A
:100E0000910509F469C08A32910509F473C0089507
:100E10008533910509F459C08933910501F108958D
:100E2000833E9105A9F138F4803E9105F9F0823EA8
:100E3000910549F10895863E9105A9F1873E9105F6
:100E4000C9F1843E910519F52091A60521FF1FC027
:100E50008091A50584FD14C087EE90E0089520914F
:100E6000A5052370A1F080EE90E008952091A505DE
:100E700020FD47C03091A60530FF09C024FF44C0C3
:100E800090E080E004C02091A50522FDF7CF0895F1
:100E90002091A50522FD3BC03091A60530FDE3CF92
:100EA00024FFF5CFEDCF2091A50523FFF0CF24FD42
:100EB000E7CFD2CF2091A50523FD2CC03091A60508
:100EC00031FFEECF84EE90E008952091A50525FF37
:100ED000DECF89E290E008952091A50525FFD7CFC8
:100EE00085E390E008952091A50526FFD0CF8AE202
:100EF00090E008952091A50526FFC9CF81E390E0F9
:100F0000089589E390E0089583EE90E0089582EEDD
:100F100090E0089586EE90E008959091A50592FFE7
:100F200006C0282F28712830F9F4877F846093FF4A
:100F300006C0282F28712831F1F4877E8461209122
:100F4000A60520FF06C0382F38713830D9F4877FC6
:100F5000816021FF06C0282F28712831D1F4877EB7
:100F6000816194FD877E0895282F24712430F9F63D
:100F70008B7F8860DCCF282F2471243101F78B7E92
:100F80008861DDCF382F3171313019F78E7F88605D
:100F9000E0CF282F2171213121F78E7E8861E1CFAA
:100FA00008950C94D00708950C94D307E82FF0E02F
:100FB000E157FC4F80810895089580EA8A95F1F702
:100FC000089508950E943D0980914001809140015B
:100FD00095E0811190E090939A0385E0891B8093BE
:100FE0009903A9E2B2E061E070E08D91E82FE2950B
:100FF000EF70F0E041A18F709B0101C0220F8A9534
:10100000EAF7922F9095942391A382A1822B82A339
:1010100082E0AE32B80749F7A3E2B2E061E070E0E7
:101020008D91E82FE295EF70F0E041A18F709B0168
:1010300001C0220F8A95EAF7922F9095942391A3ED
:1010400082A1822B82A382E0A932B80749F7E5E8A2
:10105000F3E0AFE8B3E08FE893E011921D928E17B2
:101060009F07D9F785E00E94E8080E9491050C943B
:1010700047090E941F098823F9F08091990390E0A5
:1010800081579C4F0E945A09811113C080919B0285
:101090008F5F80939B02863050F0E0919903F0E0DF
:1010A000E157FC4F108211821282138214820C9439
:1010B000990510929B02FBCF80919A0390E0815793
:1010C0009C4F0E9475090C94E1078F929F92AF92FA
:1010D000BF92CF92DF92EF92FF920F931F93CF9325
:1010E000DF9389E2A82E82E0B82E05E813E0912C68
:1010F000CC24C394D12CF50181915F01C82FC295F6
:10110000CF70D0E099A18F70760101C0EE0C8A9566
:10111000EAF7892F8E2989A38AA18E2C80948821B1
:101120008AA30E94DD07E3E2F2E050E040E020E025
:101130003191A32FA295AF70B0E090968C9190E082
:101140003F7002C0959587953A95E2F780FD3CC0C7
:101150008C2D042E01C0880F0A94EAF7282B4F5FCC
:101160005F4F4630510521F789A1882289A28AA1C3
:10117000E82AEAA2F8018081281741F1208381E062
:10118000982A0F5F1F4FFEE2AF16F2E0BF0609F08C
:10119000B2CF60919A0370E061577C4F292D45E0F2
:1011A00085E893E00E94E9080E943908892DDF91C3
:1011B000CF911F910F91FF90EF90DF90CF90BF9054
:1011C000AF909F908F90089580E0C8CF80E0D8CFF7
:1011D0000895FF920F931F93CF93DF93F82E092F5B
:1011E000162FD72FC42F222349F081E080939E022F
:1011F0000E946C1C90939D0280939C0280919E02A1
:101200008823A1F080919C0290919D020E94841CF1
:10121000069760F0EF2DF02FA12FBD2FCE0FDF2FFF
:10122000D11DEC17FD0741F410929E02DF91CF9182
:101230001F910F91FF90089581918D93F2CF80912E
:101240009F02811111C08091D80080618093D800E5
:101250008AE18A95F1F700C09091D900892F8170B9
:1012600090FF82E080939F0281E090919F029130F5
:1012700009F080E008950C941F090E943B098093B7
:1012800040010E941F0981110C944E0908950E948B
:101290001F09811102C00C945409089561E070E0A7
:1012A00081E491E00C94DC0F61E070E081E491E076
:1012B0000C94E50FCF93DF93D82FC92F90E080E0F7
:1012C0000E94BE10009779F4ED2FFC2FDC01AF5582
:1012D000BD4F2C912193019685309105B9F781E09E
:1012E000DF91CF91089580E0FBCF30E020E0FC015A
:1012F0004191CF01F901EF55FD4F40832F5F3F4FE3
:1013000025303105A1F70895CF92DF92EF92FF9239
:101310000F931F93CF93DF936C017B0164E670E022
:1013200088E70E94960EEC0197FD12C010E000E0E5
:10133000F601E00FF11F849164E670E00E94F20E66
:10134000EC01892B29F40F5F1F4F0E151F0581F744
:101350000E94750FCE01DF91CF911F910F91FF90E9
:10136000EF90DF90CF900895EBE9F3E080E092E01A
:10137000DF019C011D9221503040E1F7F093A00560
:10138000E0939F058FEF9FEF9093D2028093D1025D
:1013900008950E941C058093CD0280FD0FC080E857
:1013A0008093CC020E94900E6DE070E08BE292E0A0
:1013B0000E948409892B21F080E0089580E2F0CF1B
:1013C0008091CD0263E070E081FD26C088E292E06A
:1013D0000E948409892B81F76DE070E088E192E03A
:1013E0000E948409892B41F70E94781C605A75413C
:1013F0008F4F9F4F60939B0570939C0580939D0535
:1014000090939E050E94B40981E08093D00280935E
:10141000CF021092CE02089585E292E0D9CF2091BA
:10142000CC0236E0839FC0011124629F800D911D84
:101430001124811522E0920714F090E080E0855697
:101440009C4F9093A00580939F05089520919F0540
:101450003091A005255933404091CC02642F70E0B3
:10146000C9010E949123481B463010F4240F311DFE
:10147000211582E0380710F030E020E025563C4F7F
:101480003093A00520939F0508951F93CF93DF937A
:10149000162F8A3031F481E0DF91CF911F910C94A7
:1014A000BF0A8D3011F480E0F7CFC0919F05D09135
:1014B000A00596E0FE01A6EAB2E001900D929A9591
:1014C000E1F7803EC8F086E0FE0111928A95E9F7C7
:1014D00011111EC0C0919F05D091A00546E050E0BB
:1014E000BE0186EA92E00E94B423892BF9F4DF91D1
:1014F000CF911F910C94260AF6E08F9FB001112422
:10150000685C7D4F46E050E0CE010E94AB23E0CF07
:10151000E0919F05F091A0059F012A5F3F4F2E1794
:101520003F07C1F2808180958193F9CFCB59D34099
:10153000CE0125E0969587952A95E1F721E030E0E8
:10154000A90102C0440F551F8A95E2F7CA014091D4
:10155000D1025091D202842B952B269645E0D69548
:10156000C7954A95E1F702C0220F331FCA95E2F7EB
:10157000822B932B9093D2028093D102B8CFCF933A
:10158000382FE0919F05F091A005EB59F340209191
:10159000CC02622F70E0CF010E949123281B822F82
:1015A000332369F066E00E948523C82FC15010F4F0
:1015B000CF91089560E080E20E94450AF7CF9F0135
:1015C000280F311D2115324018F080E0F0E0E0E0F6
:1015D0008E0F9F2F911D85569C4F9093A005809351
:1015E0009F05E6CFFF920F931F93CF93DF93EC01FC
:1015F000F62EFC0101900020E9F78F01015011093E
:10160000C017D10730F0DF91CF911F910F91FF905C
:1016100008956F2D89910E94450AF2CF0E94F20A27
:1016200081E00C94BF0A0E94781C605A75418F4F6C
:101630009F4F60939B0570939C0580939D059093AD
:101640009E058091CF02811108C062E070E086E1C2
:1016500092E00E948409892B19F08091CF020895AD
:1016600081E08093CF02F9CF2F923F925F926F92E9
:101670007F928F929F92AF92BF92CF92DF92EF9222
:10168000FF920F931F93CF93DF932091D10230915C
:10169000D2022115310531F08091CE0261E070E077
:1016A000882399F0DF91CF911F910F91FF90EF90D8
:1016B000DF90CF90BF90AF909F908F907F906F9072
:1016C0005F903F902F9008958F5F082F10E01B01CF
:1016D000082E02C0220C331C0A94E2F7A101422317
:1016E0005323452B89F39091CD0290FD44C0829500
:1016F000880F807680934B01980136952795369513
:10170000279520934E01815E80934C0110924F01EA
:1017100024E630E047E050E069E471E088E70E94A9
:10172000210F892B09F0BECFA80125E0440F551FDA
:101730002A95E1F78091CD0280FD2BC045565C4F84
:1017400004E610E020E230E060E488E70E94480F01
:10175000892B09F0A7CF0E94130BE101C095D0950A
:101760008091D1029091D202C823D923D093D20282
:10177000C093D10297CF880F880F880F80934B01B9
:1017800010924E01895F80934C0183E080934F015A
:10179000BFCFECEAF2E080E2DF011D928A95E9F723
:1017A000A7E3B2E003E312E08BE3C82E82E0D82E79
:1017B00097E0592E772473948D91E80129918E0139
:1017C000240F352F311D25563C4FE82FF0E0E4550E
:1017D000FD4F90E080E0652C681A872C082E01C030
:1017E000880C0A94EAF77901A12CE701B9907E01EF
:1017F000B820662D6A196770962E062E000C770B9E
:10180000DB2D01C0DD0F9A94EAF77195619571099E
:101810006770772701C0B6946A95EAF7BD2A6081A0
:10182000962E9B289082A39468E0A612DECF0196A4
:1018300031968830910579F6CA16DB0609F0BCCFDF
:1018400004E610E020E230E04CEA52E07DCF8091E7
:10185000CF02882369F062E070E084E192E00E94A8
:101860008409892B19F08091CF0208951092CF023C
:101870008091CF0291E0892708950F931F93809163
:10188000D002882301F160E080E00E940F0A0E94EC
:1018900026050E94340B8091CF028823A1F00E947C
:1018A000781C00919B0510919C0520919D0530911D
:1018B0009E05601B710B820B930B97FD04C01F915B
:1018C0000F910C94270C1F910F910895AF92BF9226
:1018D000CF92DF92EF92FF920F931F93CF93DF93FC
:1018E0007C015B01C42FD22FFC0182818823F9F097
:1018F0004093D5020E946C1C9093D4028093D30233
:1019000080E28C0F883008F061C0C77081E001C0B0
:10191000880FCA95EAF7DF91CF911F910F91FF9041
:10192000EF90DF90CF90BF90AF900C94F412109195
:10193000D502141340C08091D3029091D4020E942A
:10194000841C6C01B701C5010E94B817C816D906DE
:1019500090F5C0E2CD0F1D17B9F080E2810F8830FD
:1019600040F4177081E001C0880F1A95EAF70E94D1
:10197000FB12C83048F481E09D2F977001C0880F9A
:101980009A95EAF70E94F412802F0E94E112C83063
:10199000E8F4D77081E001C0880FDA95EAF7DF91AB
:1019A000CF911F910F91FF90EF90DF90CF90BF905C
:1019B000AF900C94FB1280E28C0F883038F4C77023
:1019C00081E001C0880FCA95EAF7E9CFDF91CF9196
:1019D0001F910F91FF90EF90DF90CF90BF90AF904D
:1019E00008950F939C01CB01233F4CE5340759F137
:1019F000A8F4283DFCE53F0701F1293D4CE53407FB
:101A0000D1F1273D3C4591F406E221EE41EE67ED30
:101A10007CE50E94660C80E00F910895253FFCE56F
:101A20003F07E9F0B0F0263F3C45F9F0FC01828128
:101A3000882339F11092D502EFCF07E225EE45EE6B
:101A400068ED7CE5E6CF06E221EE40EE63EF7CE553
:101A5000E0CF07E225EE44EE64EF7CE5DACF06E264
:101A600021EE42EE65EF7CE5D4CF07E225EE46EEAF
:101A700066EF7CE5CECF08E221E045EE69ED7CE53E
:101A8000C8CF81E0C9CFCF93DF93EC01FB01828106
:101A9000882309F419C1C230FCE5DF07C0F1C63163
:101AA0009CE5D90730F09E012A5F3C45293031057D
:101AB00070F50E94041B9093A6058093A505C03184
:101AC000ECE5DE0709F4CFC008F05BC0C8308CE558
:101AD000D80709F4B6C088F5C430ECE5DE0709F490
:101AE000A8C0C0F4C2308CE5D80709F49CC080912E
:101AF000A5058260C330DC4509F498C08091A50536
:101B00009091A6050E94121B0E94541580E0DF915F
:101B1000CF9108958091A5058061C630ECE5DE0780
:101B200009F484C08091A5058860C730DC4508F4BD
:101B30007DC08091A505806279C0CC308CE5D80746
:101B400009F489C070F48091A5058C60CA30ECE579
:101B5000DE0709F46BC008F478C08091A5058E7F7C
:101B600065C0CE308CE5D80709F479C08091A50511
:101B70008B7FCF30DC4508F459C08091A5058F7E5E
:101B800055C0CB3FECE5DE0709F457C030F5C33153
:101B90008CE5D80709F46FC078F4C131ECE5DE07B5
:101BA00009F465C0C231DC4509F0A8CF0E94541584
:101BB0008091A5058F773AC0C5318CE5D80709F427
:101BC00062C008F476C08091A6058160CA3FDC45FA
:101BD00009F094CF8093A60591CFCF3FFCE5DF07B6
:101BE00009F44DC088F48091A6058D7FCD3F9CE51A
:101BF000D90781F38091A6058E7FCE3FDC4550F357
:101C00008091A6058360E6CFC130FDE5DF0709F4CA
:101C100059C008F444C080E0C230DD4509F06ECF01
:101C20000E94901B6BCF8091A50581608093A505D4
:101C300065CF8091A5058460F9CF8091A60582606B
:101C4000C9CF8091A5058064F1CF0E945415809181
:101C5000A5058068EBCF8091A5058D7FE7CF8091AA
:101C6000A505877FE3CF8091A5058F7DDFCF80918C
:101C7000A5058F7BDBCF8091A505837FD7CF809192
:101C8000A6058C7FA7CF8091A50582FB992790F9A7
:101C900021E0922790FB82F990FB83F9C7CF8091D6
:101CA000A605982F909591708E7F892B90FB81F9D6
:101CB00091CF0E9454159091A505892F97FB87F924
:101CC0008058B4CF81E0ACCF81E021CFCF93DF93B8
:101CD000EB0186319C4511F50E944F1A9A81992398
:101CE00099F08A7A91E009F490E09093D6028111FC
:101CF00009C089E20E942A1A0E948E1A80E0DF91B0
:101D0000CF91089585E3F6CF8091D602811104C06A
:101D100089E20E94311AF0CF85E3FBCF81E0EFCF5B
:101D20001092B9008CE08093B8000895EF92FF9272
:101D30000F931F93CF93DF93182FEB011092BC00EA
:101D400084EA8093BC000E946C1C7C018091BC00E2
:101D500087FF27C08091B900887F883029F0809163
:101D6000B900887F8031D9F51093BB0084E8809357
:101D7000BC000E946C1C8C018091BC0087FF24C0B9
:101D80002091B900287F90E080E02831B1F081E017
:101D900090E0203411F490E080E0919581959109D4
:101DA0000CC0CF3FDC0791F20E946C1C8E199F097A
:101DB0008C179D0758F28EEF9FEFDF91CF911F9107
:101DC0000F91FF90EF900895CF3FDC07A9F20E949A
:101DD0006C1C801B910B8C179D0770F2ECCF8FEF62
:101DE0009FEFEBCF0F931F93CF93DF93EB01809384
:101DF000BB0084E88093BC000E946C1C8C01809125
:101E0000BC0087FF11C02091B900287F81E090E0DD
:101E1000283211F490E080E0919581959109DF914D
:101E2000CF911F910F910895CF3FDC0741F30E949E
:101E30006C1C801B910B8C179D0708F38EEF9FEF96
:101E4000EECFCF92DF92EF92FF920F931F93CF933B
:101E5000DF936B018A017901B9010E94960EE601B8
:101E60000C0D1D1DC017D10761F424E92093BC009F
:101E7000DF91CF911F910F91FF90EF90DF90CF9066
:101E8000089597FDF2CFB70189910E94F20EEACF33
:101E9000CF92DF92EF92FF920F931F93CF93DF9336
:101EA000C62F6A017901B8010E94960E97FD0CC0F9
:101EB000B8018C2F0E94F20EE601EC0CFD1CCE1531
:101EC000DF0511F097FF0CC024E92093BC00DF91DF
:101ED000CF911F910F91FF90EF90DF90CF900895D9
:101EE000B80189910E94F20EEACF84E98093BC0088
:101EF00008958EE14A9B02C08150E1F74A9BFECFD4
:101F000008955A9880E28A95F1F75A9A0895FC014B
:101F10003BE03A95F1F720E090E080E031E040E1ED
:101F20004A95F1F7880F4A9B02C08160232742E05F
:101F30004A95F1F7000040E14A95F1F79F5F691378
:101F4000EECF90E19A95F1F799B132E03A95F1F739
:101F5000000040E14A95F1F792FB992790F992270A
:101F60002081920F90830895EF92FF920F931F9319
:101F7000CF93DF930F92CDB7DEB719828C017C012E
:101F8000E60EF11C0E151F0561F481E09981911197
:101F900080E00F90DF91CF911F910F91FF90EF9014
:101FA00008950E94790F68E0CE0101960E94870F84
:101FB000F80181938F01E6CF9093D9028093D802E4
:101FC0006093D702529A5A9A08959093D9028093B7
:101FD000D8026093D70252985A9AEA9AE9E6F0E05A
:101FE00080818F7C808308956150770B91E001C0E0
:101FF000990F6A95EAF720E031E0911108C0222399
:1020000091F05A9A80E28A95F1F75A980895492FEB
:10201000482339F05A9A232740E24A95F1F79695DA
:10202000ECCF5A98F9CF5A98EDCFFF920F931F93A8
:10203000CF93DF93EC018C01060F111DC017D10760
:1020400031F4DF91CF911F910F91FF900895F99096
:102050000E94810F68E08F2D0E94F40FEFCF1F9236
:102060000F920FB60F9211240F931F932F933F934C
:102070004F935F936F937F938F939F93AF93BF9390
:10208000EF93FF93CF93DF930F92CDB7DEB7198213
:102090000E94790F67E0CE0101960E94870F082FFA
:1020A000069506950695982F92959570202F257088
:1020B000920F292F2370969596958770920F89130A
:1020C00044C08981811141C08091D7028017E8F115
:1020D00020E12A95F1F75A9A529A82E08A95F1F70F
:1020E00000C0A8E00A9FC00111240091D8021091FD
:1020F000D902080F191F5A98F8016581662321F04B
:10210000868197810E9415100E94810FF0E1FA9557
:10211000F1F75A9852985A9A20E12A95F1F7D80186
:1021200012966C911297662331F113968D919C91C2
:102130000E94B40FD801ED91FC91882311F088E042
:1021400001C082E080830E94790F0F90DF91CF91D0
:10215000FF91EF91BF91AF919F918F917F916F917F
:102160005F914F913F912F911F910F910F900FBE53
:102170000F901F901895ED91FC91E1CF0F931F9355
:10218000CF93DF932091D702281719060CF471C062
:102190008C0193E0000F111F9A95E1F7C091D802CE
:1021A000D091D902C00FD11FF894529A5A9825E0C5
:1021B0002A95F1F70000982F969595708570980FE5
:1021C000892F837096959695980F092B0E94810F01
:1021D00000C067E0802F0E94F40F80E18A95F1F73C
:1021E00052985A9A4A9B17C087E090E04A9915C0C6
:1021F0006D81662321F18E819F810E94B40F811130
:102200001EC0529A5A9AE881F98182E080837894BC
:1022100082E090E00DC000C0E5CF019771F4529AC2
:102220005A9AE881F98181E08083789481E090E096
:10223000DF91CF911F910F91089500C0D7CF0E94D9
:10224000790F20E22A95F1F75A98529A80E18A95FF
:10225000F1F76A81662321F08B819C810E94151021
:102260000E94810FE881F9811082789490E080E0EB
:10227000DFCF84E090E0DCCF9093DF028093DE023A
:102280000895E091DE02F091DF02309721F0019095
:10229000F081E02D099480E00895E091DE02F09154
:1022A000DF02309721F00280F381E02D0994089538
:1022B0002091DC023091DD022817390771F09093EC
:1022C000DD028093DC02E091DE02F091DF023097C4
:1022D00021F00680F781E02D099408952091DA021B
:1022E0003091DB022817390771F09093DB0280935D
:1022F000DA02E091DE02F091DF02309721F00084F3
:10230000F185E02D0994089585B7806885BF85B76C
:10231000806885BF0895089508950C948B110895E1
:102320000C948F110E9484110E948C110C948D11B9
:102330000C941F090E94631C0E94E20780E00E9427
:10234000C9090E94DB1C0C949011AF92BF92CF92EE
:10235000DF92EF92FF920F931F93CF93DF93CDB74E
:10236000DEB72A970FB6F894DEBF0FBECDBF0E942E
:102370006508B82E0E949811882309F463C081EE85
:10238000C82E82E0D82E10E000E0A02E802F0E9400
:10239000D607E82EF601F1906F01F81609F44CC04B
:1023A0008091610381FD0E94DC079F2D9E2580E0C6
:1023B000FF24F394292F2F21D1F18E83AF82EF20B8
:1023C00081E009F480E088870E946C1C8160782F8E
:1023D0009A8789874E815F8168858A850E94441229
:1023E000F801EF51FD4F8081F826F0820E943D0CEC
:1023F000B1100E94130B0E9441119091E0028917C5
:1024000091F10E9441118093E0022A960FB6F89450
:10241000DEBF0FBECDBFDF91CF911F910F91FF9017
:10242000EF90DF90CF90BF90AF900C94A2058F5F9C
:10243000FF0C863009F0BECF0F5F1F4F0A30110529
:1024400009F0A3CF8FEF89838A831B820E946C1CC3
:102450008160782F9D838C8349815A816B818D8126
:102460000E944412C3CF2A960FB6F894DEBF0FBE67
:10247000CDBFDF91CF911F910F91FF90EF90DF9033
:10248000CF90BF90AF900895CF93DF93CDB7DEB7D5
:102490002B970FB6F894DEBF0FBECDBF4F83588782
:1024A00069877A878B871E821D8285E0FE013796B9
:1024B000DE01119601900D928A95E1F749815A81CA
:1024C0006B817C818D819E812B960FB6F894DEBF47
:1024D0000FBECDBFDF91CF910C94BB17FC01808163
:1024E00091810C94FC19CF93C82F882309F43FC025
:1024F0008CEF8C0F813AA0F46C2F80915001909159
:1025000051010E94A71B882329F08C2F0E94311AA9
:102510000E948E1A8C2F0E942A1ACF910C948E1A28
:1025200080E28C0F883048F4C77081E001C0880FCA
:10253000CA95EAF70E94521AF0CFEBE5EC0FE330B0
:1025400040F4F0E0E759FD4F808190E0CF910C948A
:102550005811C85AC73158F4EC2FF0E0EE0FFF1FA6
:10256000E55CFD4F80819181CF910C946E11CF91EC
:102570000895882329F19CEF980F913A20F40E9446
:10258000311A0C948E1A90E2980F983050F487709C
:1025900091E001C0990F8A95EAF7892F0E94581A95
:1025A000F0CF9BE5980F933020F490E080E00C94FE
:1025B0005811885A873120F490E080E00C946E1115
:1025C0000895CF93C82F0E947312C93349F42FEF97
:1025D00087EE93E0215080409040E1F700C000007A
:1025E0008C2FCF910C94B912882321F00E94521A9B
:1025F0000C948E1A0895882321F00E94581A0C9486
:102600008E1A0895BF92CF92DF92EF92FF920F93AE
:102610001F93CF93DF936C01D62FC72FFC01058149
:1026200002950F70128111110E946F1A0E94481AB0
:10263000E82E882391F01123E9F08C2F807F8034DD
:1026400021F080E28D0F8830A8F082E00E94D91A34
:102650000E94481A91E0E82EE926BC2EB2949FE031
:10266000B922FBE0FB15A8F1EB2DF0E0EE51F94D9E
:102670000C94A523E12CF1CF0C2F0F70C07F11F02B
:102680000295007F1123A9F0002359F080E28D0FFD
:10269000883010F0D11109C0802F0E94521A0E9478
:1026A0008E1A8D2F0E94731214C0802F0E94621AFE
:1026B000F6CF8D2F0E94B912002359F080E28D0FC2
:1026C000883010F0D1112CC0802F0E94581A0E941F
:1026D0008E1A2B2D2850330B2430310520F40E9404
:1026E00041110E94A205EE2009F483C10E94441A00
:1026F00080FD7FC1F60112820E943E1A0E94C71817
:10270000C6010E941A150E943E1ADF91CF911F91B7
:102710000F91FF90EF90DF90CF90BF900C94E8184E
:10272000802F0E94681AD3CF2C2F2F70F22EC07FDB
:10273000C03219F0F29480EFF822DD2369F0D13035
:1027400049F1112391F1002351F1F601858180FFB8
:10275000A8CF8F70858323C0112381F0011106C09B
:102760000E94751A8F290E94F412B3CF0130C1F76D
:102770000E94751A8F290E947B1AABCF011106C0E7
:102780000E94841A8F2D0E94FB12A3CF013009F4FE
:10279000A0CFF6CF112329F0063008F09ACF8F2D65
:1027A000E2CF053008F095CFEDCF002359F3D933B0
:1027B00049F4FFEF27EE33E0F15020403040E1F7DD
:1027C00000C000008D2F0E94B91283CF8C2F8695F8
:1027D0008695837069F0813009F07BCF8D2F9C2F17
:1027E0009370111102C090E080E00E946E1171CFD1
:1027F0008D2F9C2F9370111102C090E080E00E94F9
:10280000581167CF8C2F837009F041C0111161CF2F
:102810004D2F429546954770440F440F0D2F0F7072
:1028200010E030E020E0042E04C0000F111F221F32
:10283000331F0A94D2F760E070E0CB01D4FF0FC0E1
:102840006FE070E080E090E004C0660F771F881FA3
:10285000991F4A95D2F76095709580959095C69589
:10286000C695C370602B712B822B932BC23049F01D
:1028700058F4C13019F00E9479182BCF0E946718C4
:1028800028CF0E948B1825CF0E94651822CF8695ED
:10289000112311F08C2F8170882309F41ACF4D2F4A
:1028A000429546954770440F440F0D2F0F7010E06E
:1028B00030E020E0042E04C0000F111F221F331F40
:1028C0000A94D2F760E070E0CB01D4FF0FC06FE054
:1028D00070E080E090E004C0660F771F881F991FAA
:1028E0004A95D2F76095709580959095C695C69556
:1028F000C370602B712B822B932BC23049F058F49C
:10290000C13019F00E943E19E4CE0E942C19E1CE8C
:102910000E945019DECE0E94A118DBCECF70112389
:1029200029F08C2F0E94C7188D2F1DCF8D2F0E944C
:10293000FB128C2F0E94E818CCCED23F89F160F4B4
:10294000D03FC9F0D13F29F1112309F442C0011150
:10295000A8CE8C2F8F7121C0D33F39F1D43FA1F77E
:10296000112369F1CF718C2F0E94C71863E08C2F5F
:102970000E94C41AAECE112341F0053008F0A9CE52
:102980008C2F8F710E940B19A4CE063008F0A1CEB7
:10299000F7CF8C2F8F71112369F20E94C71899CE3F
:1029A0008C2F8F711123C9F3C5CF112329F08C2FE0
:1029B0008F710E94B2188DCE0E94AD188ACE81E030
:1029C0000E94D91A023008F484CE82E00E94D91AFB
:1029D00080CE002359F0D93309F0F4CE8FEF97EE73
:1029E000E3E081509040E040E1F7EACE8C2F8F7118
:1029F000A1CFDF91CF911F910F91FF90EF90DF90CA
:102A0000CF90BF9008950F931F93CF93DF93EC0166
:102A1000688179818A810E94061A8C010E9462195C
:102A20000E946418B801CE01DF91CF911F910F91E0
:102A30000C940213CF93DF93EC018B819C81892B43
:102A400029F08881998189238F3F59F4DF91CF91B3
:102A50000895CE010E940315CE01DF91CF910C9411
:102A60008605CE010E94BA058111F3CF0E94481A53
:102A7000882361F38A81882349F382E0DF91CF9133
:102A80000C94D91A0E946F1A0E94721A0E948E1A10
:102A900090E080E00E94581190E080E00C946E116C
:102AA0000E94381A0C9442150E945F1A0C9450151B
:102AB000E92FE295EF70E250EE3070F4F0E0E25171
:102AC000F94D0C94A523803F19F020F4883E20F4A2
:102AD00081E00895843FE1F380E00895883EC0F3EB
:102AE000813FD1F7F5CF93FB882780F908950E94A5
:102AF000FC190C945815CF93DF9300D000D00F929F
:102B0000CDB7DEB70F900F900F900F900F90DF9121
:102B1000CF910895CF93DF9300D000D000D0CDB7F0
:102B2000DEB726960FB6F894DEBF0FBECDBFDF919D
:102B3000CF9108951F93CF93DF93C091EC0216E0DD
:102B40008091ED028C1304C0DF91CF911F91089505
:102B5000D0E01C9FF0011D9FF00D1124E251FD4FAC
:102B60004081518162817381848195810E948A159F
:102B70002196C770E5CF40911E0350911F036091CD
:102B800020037091210380912203909123030C94E0
:102B90008A151F93CF93DF9380912303807FA9F43D
:102BA00080912003882389F08091EC02C091ED028E
:102BB00060911E0370911F03A0912103B091220325
:102BC000D62FD72316E0C81304C0DF91CF911F91F1
:102BD000089590E0109711F0DF3F19F40196877087
:102BE000F2CF189F9001199F300D1124F901E25185
:102BF000FD4F41814713F2CF40814613EFCF428111
:102C00004111ECCF438154814A1B5B0B4436510583
:102C100028F7809123038F70806180932303F9014B
:102C2000ED50FD4F80818F70806180838EE193E055
:102C30000E941A15DF91CF911F910C949A15AF92B3
:102C4000BF92CF92DF92EF92FF920F931F93CF9399
:102C5000DF93CDB7DEB761970FB6F894DEBF0FBE36
:102C6000CDBF8C0185E0F801DE011D9601900D922B
:102C70008A95E1F7F80140815181E2808EE1C82E0A
:102C800083E0D82E609121037091220361157105B4
:102C900009F44FC190911E0320911F03892F8223B5
:102CA0008F3F09F446C1A380B480F0902003F50162
:102CB000E61BF70BFF2009F40AC180912303382F8C
:102CC000307FE436F10508F0C0C0311179C0FE2C28
:102CD000251323C0941321C0E1101FC08F708061A1
:102CE000809323030E94BB15C6010E941A15809190
:102CF0002303F80185838F2D61960FB6F894DEBF0C
:102D00000FBECDBFDF91CF911F910F91FF90EF903C
:102D1000DF90CF90BF90AF900895AB2829F0842F1B
:102D200085238F3F09F021C180E0F82FF170DF2E5D
:102D300080FF3CC08091EC022091ED0236E08213CE
:102D400015C04D875E878D859E850E94FC19292FB1
:102D500022952F702230F0F0243018F59F70F1F09A
:102D6000F8019581907FD1F4D12C1EC090E0389F5E
:102D7000F001399FF00D1124E251FD4F618165137F
:102D800006C06081641303C062816E110FC001969A
:102D90008770D5CF9F7011F0882331F3805E883023
:102DA00018F3C8010E941A15FD2CA5CFEE2009F4D6
:102DB000A2CF80912303816080932303F12C9BCFCA
:102DC000251314C0941312C0E11010C0F8018583BC
:102DD000C8010E941A1586E0F801AEE1B3E0019047
:102DE0000D928A95E1F70E94BB1585CF4D875E87CE
:102DF0008D859E850E947715882319F1EE2009F1B3
:102E000080912303803270F020911E0330911F03C4
:102E100038872F831986BB86AA868C87CE010796B2
:102E20000E941A1586E0F801AEE1B3E001900D9220
:102E30008A95E1F70E94C9150E94BB15FF24F394FF
:102E40005ACFC8010E941A15F9CF311113C07A2D3B
:102E5000B98AA88A6E2D89890E947B158EE193E03C
:102E60000E941A1586E0F60111928A95E9F70E94F0
:102E7000BB15A4CF25130FC094130DC0E1100BC0D8
:102E8000F8018583C8010E941A1586E0F6011192A7
:102E90008A95E9F730CF4D875E878D859E850E94A4
:102EA0007715882371F2EE2061F28091230380323E
:102EB00008F4B8CF20911E0330911F033A83298371
:102EC0001B82BD82AC828E83CE010196A9CFE436EF
:102ED000F10510F5FE2CEE2009F4B3CF25130BC03D
:102EE000941309C086E0F801AEE1B3E001900D92C1
:102EF0008A95E1F700CF4D875E878D859E850E947C
:102F0000771581118FCF80912303816080932303F4
:102F1000C8010E941A15EFCE7A2DB98AA88A6E2DA3
:102F200089890E947B1586E0F60111928A95E9F75E
:102F30005ACFEE2009F485CF4D875E878D859E851B
:102F40000E947715F82E882309F47BCF86E0F801DC
:102F5000AEE1B3E001900D928A95E1F78EE193E046
:102F60000E946E120E94C9153ECF81E08E25DDCEF3
:102F700084E690E008951F93CF93DF93CDB7DEB73B
:102F80002C970FB6F894DEBF0FBECDBF4F83588786
:102F900069877A878B879C87CE0107960E941F16C8
:102FA000882369F08A859B85892B39F04F81588564
:102FB000842F85238F3F09F071C016E05FC086E043
:102FC000FE013796DE01119601900D928A95E1F788
:102FD0008A859B85892B89F38F81988589238F3FEB
:102FE00061F32091ED0230E0C901019687709927C5
:102FF0004091EC024817190671F40E945415109282
:10300000ED021092EC0286E0EEE1F3E0DF011D92AA
:103010008A95E9F7D2CF96E0929FD001939FB00DA9
:103020001124A251BD4FFE01319601900D929A9547
:10303000E1F78093ED020E949A15BFCF819FC001F6
:10304000112482519D4F0E941F168823E9F0E091C0
:10305000EC021E9FF0011124E251FD4F408151818D
:1030600062817381848195810E948A158091EC022E
:1030700090E00196877099278093EC028091EC0292
:103080009091ED028913DACF2C960FB6F894DEBF3B
:103090000FBECDBFDF91CF911F91089569857A85CD
:1030A0008B859C850E948A1588CF08950C945518AD
:1030B0000E945618609350037093510380935203FB
:1030C000909353030C94421508950C9458180F9341
:1030D0001F9300915003109151032091520330919E
:1030E0005303602B712B822B932B1F910F910C9408
:1030F00058180F931F930091500310915103209182
:1031000052033091530360237123822393231F9131
:103110000F910C9458180F931F9300915003109126
:103120005103209152033091530360277127822766
:1031300093271F910F910C9458180C9455180C94C8
:103140009D180E949F1860934C0370934D038093C9
:103150004E0390934F030C94421560E070E0CB0156
:103160000C94A1180F931F9341E050E060E070E0D1
:103170008A019B0104C0000F111F221F331F8A9573
:10318000D2F7C901B8011F910F910C94A1180F93A8
:103190001F9341E050E060E070E004C0440F551F11
:1031A000661F771F8A95D2F780914C0390914D034B
:1031B000A0914E03B0914F038A019B01082B192B5C
:1031C0002A2B3B2BC901B8011F910F910C94A11818
:1031D0000F931F9341E050E060E070E004C0440FA3
:1031E000551F661F771F8A95D2F7CB01BA016095EC
:1031F00070958095909500914C0310914D0320910E
:103200004E0330914F0360237123822393231F9138
:103210000F910C94A1180F931F9341E050E060E0D0
:1032200070E004C0440F551F661F771F8A95D2F7C0
:1032300080914C0390914D03A0914E03B0914F03A8
:103240008A019B01082719272A273B27C901B801B2
:103250001F910F910C94A1180F931F9300914C0391
:1032600010914D0320914E0330914F03602B712B31
:10327000822B932B1F910F910C94A1180F931F93E6
:1032800000914C0310914D0320914E0330914F0358
:1032900060237123822393231F910F910C94A11813
:1032A0000F931F9300914C0310914D0320914E03F7
:1032B00030914F0360277127822793271F910F9129
:1032C0000C94A1180895E92FEE0FE90FEE0F8E0F61
:1032D000982F977041E001C0440F9A95EAF78695C0
:1032E0008695869595E0899FF0011124EC5DFC4F51
:1032F00030E020E070E05191DF011197CB01022E08
:1033000002C0969587950A94E2F78170819585278A
:10331000842385278C932F5F3F4F2530310559F744
:103320000895E92FEE0FE90FEE0F8E0F982F97708B
:1033300086958695869525E0829FF0011124EC5DA7
:10334000FC4F50E040E080E0219130E0092E02C0C7
:10335000369527950A94E2F721703327042E01C091
:10336000220F0A94EAF7822B4F5F5F4F45305105D9
:1033700059F70895BF92CF92DF92EF92FF920F9389
:103380001F93CF93DF938C01C0904C03D0904D03DB
:10339000E0904E03F0904F038091500390915103C1
:1033A000A0915203B0915303C82AD92AEA2AFB2AD2
:1033B000CFE1D0E0BC2ED701C6010C2E04C0B695DB
:1033C000A795979587950A94D2F780FD0EC021970F
:1033D00088F7B12C8B2DDF91CF911F910F91FF902A
:1033E000EF90DF90CF90BF900895B8018C2F0E948E
:1033F0000A06019761F3EECFCF93DF93EC010E94B1
:10340000BA19BE01DF91CF910C940A061F93CF9396
:10341000DF93EB019091EB02992331F0CB01DF9127
:10342000CF911F910C94FC19882379F0CB010E9455
:10343000BA19182F682FCE010E946319BE01812F7F
:10344000DF91CF911F910C940A06CB010E94911934
:10345000182FF4CF682F80915001909151010C9456
:10346000DD1B682F80915001909151010C94DF1B5E
:1034700080915001909151010C94E11B8091540373
:103480008595859585950895809154038770089555
:1034900090915403977081E009F480E00895809141
:1034A0006003089590916003892B809360030895D1
:1034B00080959091600398239093600308951092F3
:1034C0006003089590915F03892B80935F030895B3
:1034D000809590915F03982390935F0308951092D5
:1034E0005F03089510925E03089580915503089537
:1034F00008950C94781A90915503981721F08093B1
:1035000055030C94791A089580915503882329F066
:103510001092550380E00C94791A0895E0915001BF
:10352000F0915101809160038083E0915001F0910E
:103530005101808190915F03892B8083E09150013C
:10354000F0915101808190915E03892B808390914D
:103550005503992381F0E0915001F0915101808150
:10356000892B808380915001909151010E94951B7D
:1035700081110E94841A80915001909151010C9404
:103580004D1108950C94C11A98E0899F900111245F
:10359000622B609354030E94C71880915403859551
:1035A000859585950C94C21A1092540380E00C9472
:1035B000C21A909154038095892380935403282F35
:1035C000277071F4282F082E000C330B9217130666
:1035D00039F08595859585950E94E8180C94D41A44
:1035E000089590E080E00E946F2621E08C3E9E4F7F
:1035F00009F020E0822F089582E090E00C94672685
:1036000083E090E00C946726CF9384E090E00E94E2
:103610006726C82F81E290E00E946726982F8C2FA2
:10362000CF910895CF93C92F682F84E090E00E9436
:1036300075266C2F81E290E0CF910C947526AB013A
:10364000BC018FE090E00C948726AB01BC0183E1C4
:1036500090E00C94872660E070E0CB010C94251B71
:1036600060E070E0CB010E941F1B0C942B1B6CEEE2
:103670007EEF90E080E00E94932660E082E090E0A0
:103680000E94752660E083E090E00E94752610920B
:10369000500310925103109252031092530360E0B2
:1036A00084E090E00E94752660E081E290E00E9454
:1036B000752660E085E090E00E94752660E086E077
:1036C00090E00E9475266FEF87E090E00E947526DB
:1036D00040E050E0BA0188E090E00E94872660E078
:1036E0008DE090E00E94752640E050E0BA0188E14C
:1036F00090E00E94872660E087E190E00E947526B6
:1037000040E050E0BA018CE190E00E94872660E042
:1037100080E290E00E9475260C94301B0C94371BBD
:10372000682F8EE090E00C9475269C012E5F3F4F31
:10373000AC01485F5F4F80E02417350709F4089516
:10374000F90191919F019923B9F38F5FF5CF66231A
:1037500049F0FC01329608962191261729F0E817C6
:10376000F907D1F780E0089581E008959C01FC01FC
:1037700032969FEF80E04191461751F09F3F19F438
:10378000411101C0982F8F5F8630A9F79F3F09F440
:103790000895290F311D97FD3A95F9016283089527
:1037A000FC01329608962191261303C0DF01119780
:1037B0001C92E817F907B9F708950C94B61B0C94FE
:1037C000D01B029626E0FC0111922A95E9F7089594
:1037D000089508950C94E91B0E94EA1B8091AB05A3
:1037E000843049F11092620388E190E020E40FB642
:1037F000F894A895809360000FBE2093600080E04D
:103800000E94A2050E94EA1B83B7817F846083BF68
:1038100083B7816083BF7894889583B78E7F83BF99
:103820000FB6F894A895809160008861809360003D
:10383000109260000FBE08950895CF930E94E81B78
:103840000E9465080E941C1CC0E08C2F0E94D607B5
:10385000811105C0CF5FCA30C1F7CF91089581E0D3
:10386000FCCF08950C94311C0E9454150E94411104
:103870000E94A2050C94321C1F921FB61F921124A5
:103880008F939F93AF93BF9380916203811113C075
:103890008091A1059091A205A091A305B091A405E6
:1038A0004196A11DB11D8093A1059093A205A093FF
:1038B000A305B093A405BF91AF919F918F911F90E5
:1038C0001FBE1F90189582E084BD93E095BD9AEFCE
:1038D00097BD80936E0008952FB7F8948091A1054D
:1038E0009091A205A091A305B091A4052FBF0895C2
:1038F0002FB7F8946091A1057091A2058091A3055E
:103900009091A4052FBF08959C014FB7F894809122
:10391000A1059091A205A091A305B091A4054FBF68
:10392000821B930B089578941F921FB61F92112447
:103930008F939F93AF93BF938091A1059091A20520
:10394000A091A305B091A4050196A11DB11D80937E
:10395000A1059093A205A093A305B093A405BF91E0
:10396000AF919F918F911F901FBE1F90189581E07E
:103970008093E00080E28093D8001092C9008FE12C
:103980009EE40197F1F700C0000087E090EBDC01B6
:103990008093B4059093B505A093B605B093B70591
:1039A00088E19CE00FB6F894A895809360000FBE64
:1039B00090936000FFCF0E94F11A811102C00E9413
:1039C0008E1B0E94FC1A809361030E94041B90933B
:1039D000A6058093A5050E94001B682F70E090E06B
:1039E00080E00E94651860914C0370914D038091B6
:1039F0004E0390914F030C949F1880916B03089590
:103A00000895CF93DF9300D00F92CDB7DEB790919A
:103A1000AB05943019F589837B836A8382E08093B8
:103A2000E9008FEF9091E800815095FD06C095ED7B
:103A30009A95F1F700008111F5CF8091E80085FF9C
:103A40000DC050E040E063E070E0CE0101960E94BE
:103A5000F41E8091E8008E778093E8000F900F901D
:103A60000F90DF91CF910895BC0184E00C94011D6B
:103A7000BC0183E00C94011DCF93DF93EC0181E046
:103A80008093E9008FEF9091E800815095FD06C08A
:103A900095ED9A95F1F700008111F5CF8091E8003E
:103AA00085FF14C050E040E068E070E0CE010E9465
:103AB000F41E8091E8008E778093E80088E0FE0194
:103AC000A3E6B3E001900D928A95E1F7DF91CF91E3
:103AD00008958091AA05811109C00E9484200E9446
:103AE000E1208091E20084608093E20008951092CA
:103AF000AA050895089508950C94341C42E061ECE1
:103B000081E00E94002042E261EC82E00C940020FF
:103B10008091AD05833009F45FC030F48130C1F18C
:103B2000823009F49BC008958A3009F487C08B3035
:103B300009F46DC0893009F04EC08091AC05813226
:103B400009F049C08091B0059091B105029708F045
:103B500042C08091E800877F8093E8008091E80070
:103B600082FF35C09091F3008091F200029729F412
:103B70008091F1008B7F813021F48091F10080935E
:103B80006B038091E8008B778093E8000C943420DD
:103B90008091AC05813AF9F48091E800877F8093A9
:103BA000E8008091B0059091B105892B61F468E03F
:103BB00083E693E070E00E94431F8091E8008B77DA
:103BC0008093E800089560E090E080E0F3CF80917A
:103BD000AB058111C3CF08958091AC05813AD9F727
:103BE0008091B0059091B105892BA9F78091E800EB
:103BF000877F8093E8008091E80080FFFCCF809170
:103C00005C018093F1008091E8008E77BDCF8091B8
:103C1000AC05813201F78091B0059091B105892BF7
:103C2000D1F68091E800877F8093E8000E943420DD
:103C30008091AE0580935C010C9454158091AC0585
:103C4000813249F68091E800877F8093E8000E94E6
:103C500034208091AF0580936C0308958091AC056A
:103C6000813A09F0B8CF8091E800877F8093E8001F
:103C70008091E80080FFFCCF80916C03C2CF84B7B5
:103C8000877F84BF0FB6F894A89580916000886103
:103C900080936000109260000FBE80E890E00FB645
:103CA000F89480936100909361000FBE0E9492117E
:103CB0000E9484200E94E1208091E2008460809331
:103CC000E20078940E946A230E949A1182E591E0B2
:103CD0000E943C118091AB05853019F00E94A5111E
:103CE000F9CF0E94EC1B8091A905882399F30E94CB
:103CF0001D1C882379F30E94DE1EECCF0C94801EDD
:103D0000292F33272330310519F168F4213031058B
:103D100009F44AC02230310509F44BC090E080E03C
:103D200030E020E028C02132310579F1223231051E
:103D3000A9F780E490E023E238E061157105D9F03D
:103D400082E390E021EF37E061307105A1F0E6CF2A
:103D500099278130910599F0009741F082309105C3
:103D600089F00397D9F6E8E7F7E002C0E0EAF7E068
:103D7000849190E09F01FA01318320830895EEE859
:103D8000F7E0F6CFEEE7F7E0F3CF89E090E026EB3F
:103D900037E06115710579F389E090E02FEC37E0A9
:103DA0006130710541F3BACF82E190E02FED37E049
:103DB000E2CF8BE390E024EA37E0DDCF80E189BDFC
:103DC00082E189BD09B400FEFDCF8091D8008F7DCE
:103DD0008093D8008091E00082608093E000809121
:103DE000E00081FDFCCF0895AF92BF92CF92DF92A9
:103DF000FF920F931F93CF93DF936C01EB018A0126
:103E00000E945320F82E811123C00115110539F0AD
:103E1000F80180819181C81BD90BC80ED91EB12C25
:103E2000A12C2097A9F08091E80085FD22C0809107
:103E3000E8008E778093E80001151105A1F0F801E4
:103E400080819181A80EB91EB182A08285E0F82EF2
:103E50008F2DDF91CF911F910F91FF90DF90CF9029
:103E6000BF90AF9008950E9453208823D1F2F82E7E
:103E7000EFCFF60181916F018093F1002197FFEF61
:103E8000AF1ABF0ACECFFC018091B2059091B30565
:103E900086179707A0F06115710529F49091E80045
:103EA0009E779093E80090E06115710551F49111AF
:103EB00008C08091E80082FF34C080E00895BC0112
:103EC000F2CF8091AB058823C1F18530C1F180919B
:103ED000E80083FD30C08091E80082FDEACF809148
:103EE000E80080FFE1CF8091F3002091F200382FAD
:103EF0006115710519F02830310558F091E028302E
:103F0000310509F090E02091E8002E772093E80039
:103F1000CBCF81918093F100615071092F5F3F4FAA
:103F2000E7CF8091AB05882341F0853041F0809147
:103F3000E80083FFBECF81E0089582E0089583E02A
:103F40000895FC018091B2059091B30586179707FB
:103F5000A0F06115710529F48091E8008E778093B7
:103F6000E80090E06115710551F4911108C080914D
:103F7000E80082FF35C080E00895BC01F2CF809157
:103F8000AB058823C9F18530C9F18091E80083FD34
:103F900031C08091E80082FDEACF8091E80080FF87
:103FA000E1CF8091F3002091F200382F6115710567
:103FB00019F02830310558F091E02830310509F02A
:103FC00090E08091E8008E778093E800CBCF8491D9
:103FD0008093F1003196615071092F5F3F4FE6CF1A
:103FE0008091AB05882341F0853041F08091E80055
:103FF00083FFBDCF81E0089582E0089583E00895B6
:10400000982F973028F08F708093E90081E0089511
:104010009093E900242F762F50E0981731F070919B
:10402000EC002091ED005091F00021FD02C09F5F57
:10403000E8CF3091EB003E7F3093EB003091ED0004
:104040003D7F3093ED003091EB0031603093EB0019
:104050007093EC002093ED005093F0002091EE005F
:1040600027FDE5CF80E008958091AC0587FF13C060
:104070008091E80082FF06C08091E8008B778093F2
:10408000E80004C08091AB058111F2CF08958091C2
:10409000AB058823D9F38091E80080FFF8CF8091A9
:1040A000E8008E77ECCF2091E4003091E50095E6B2
:1040B000A9012091EC00822F817020FF06C0809121
:1040C000E80080FF06C080E008952091E80022FD0E
:1040D0001AC08091AB05882389F0853089F08091E2
:1040E000EB0085FD0FC02091E4003091E500421700
:1040F0005307F9F29150E1F684E0089582E00895C3
:1041000083E0089581E008950E94F2200E94FA2041
:10411000E0EEF0E0808181608083E8EDF0E0808176
:104120008F77808319BCA7EDB0E08C918E7F8C9344
:1041300080818F7E80831092AA0508950F931F932C
:10414000CF93DF930E94F2200E94FA20C8EDD0E0C6
:1041500088818F77888388818068888388818F7D34
:10416000888319BC1092AB051092A7051092A9057F
:104170001092A80500EE10E0F80180818B7F80830B
:1041800088818160888342E060E080E00E940020B6
:10419000E1EEF0E080818E7F8083E2EEF0E08081CE
:1041A00081608083808188608083F80180818E7F38
:1041B0008083888180618883DF91CF911F910F91E7
:1041C0000895E8EDF0E080818F7E8083E7EDF0E0F8
:1041D00080818160808384E082BF81E08093AA0532
:1041E0000C949E20E8EDF0E080818E7F8083109219
:1041F000E20008951092DA001092E10008951F92F3
:104200000F920FB60F9211242F933F934F935F930A
:104210006F937F938F939F93AF93BF93EF93FF938E
:104220008091E10082FF0BC08091E20082FF07C015
:104230008091E1008B7F8093E1000E94692380914F
:10424000DA0080FF19C08091D80080FF15C08091EE
:10425000DA008E7F8093DA008091D90080FF96C0CB
:1042600080E189BD82E189BD09B400FEFDCF81E016
:104270008093AB050E94691D8091E10080FF19C009
:104280008091E20080FF15C08091E2008E7F8093D4
:10429000E2008091E20080618093E2008091D8008A
:1042A00080628093D80019BC85E08093AB050E94A2
:1042B0007B1D8091E10084FF2BC08091E20084FF90
:1042C00027C080E189BD82E189BD89B5982F9170B1
:1042D00080FFFBCF8091D8008F7D8093D8008091A4
:1042E000E1008F7E8093E1008091E2008F7E8093D9
:1042F000E2008091E20081608093E2008091A70556
:10430000882309F449C084E08093AB050E947C1D9A
:104310008091E10083FF29C08091E20083FF25C0E6
:104320008091E100877F8093E10082E08093AB057C
:104330001092A7058091E1008E7F8093E10080912B
:10434000E2008E7F8093E2008091E20080618093A2
:10435000E20042E060E080E00E9400208091F000F6
:1043600088608093F0000E947A1DFF91EF91BF91C9
:10437000AF919F918F917F916F915F914F913F91FD
:104380002F910F900FBE0F901F90189519BC10928F
:10439000AB050E94771D70CF8091E30087FD93E00D
:1043A0009093AB05B3CF1F920F920FB60F921124CB
:1043B0002F933F934F935F936F937F938F939F932D
:1043C000AF93BF93CF93DF93EF93FF93D091E90027
:1043D000DF708091EC00C82FC17080FDC0E81092A2
:1043E000E9008091F000877F8093F00078940E942C
:1043F00017221092E9008091F00088608093F0000D
:10440000CD2BCF70C093E900FF91EF91DF91CF9159
:10441000BF91AF919F918F917F916F915F914F91DC
:104420003F912F910F900FBE0F901F9018951F93E3
:10443000CF93DF93CDB7DEB7AA970FB6F894DEBF60
:104440000FBECDBF8CEA95E02091F100FC012193D5
:10445000CF01F5E0843B9F07B9F70E94881D80914A
:10446000E80083FF1EC18091AC059091AD059A30A4
:1044700008F017C1E92FF0E0E450F94D0C94A523A2
:10448000803899F0823809F00CC18091B0058F70A6
:10449000873008F006C18093E9008091EB0085FB2E
:1044A000882780F91092E90006C08091A8059091B4
:1044B000A905911182609091E800977F9093E800A0
:1044C0008093F1001092F1008091E8008E77E5C0B2
:1044D000882309F4D3C0823009F0E3C08091AE058F
:1044E0008111D6C08091B0058F702FEF280F263034
:1044F00008F0D7C08093E9002091EB0020FFC8C0EE
:10450000933031F48091EB0080628093EB00C0C067
:104510009091EB0090619093EB0021E030E001C0BE
:10452000220F8A95EAF72093EA001092EA00809120
:10453000EB008860EACF8111B4C01091AE051F77FF
:104540008091E3008078812B8093E3008091E800E4
:10455000877F8093E8000E9434208091E80080FFEC
:10456000FCCF8091E30080688093E30082E011112A
:1045700083E08093AB0595C08058823008F091C0ED
:104580008091AE059091AF058C3D23E09207A1F597
:1045900083E08A838AE289834FB7F894DE01139619
:1045A00020E03EE051E2E32FF0E050935700E49129
:1045B00020FF03C0E295EF703F5FEF708E2F90E019
:1045C000EA30C0F0C7968D939D932F5F243159F741
:1045D0004FBF8091E800877F8093E8006AE270E037
:1045E000CE0101960E94431F8091E8008B77809353
:1045F000E80057C0C096E7CF6091B0057091B10553
:10460000AE014F5F5F4F0E947E1EBC01892B09F4F3
:1046100048C09091E800977F9093E80089819A8143
:104620000E94A11FE1CF8038E1F58091E800877FEB
:104630008093E8008091A7058093F10045CF811118
:1046400030C09091AE05923060F58091E800877F90
:104650008093E8009093A7050E9434208091A705DD
:10466000882311F084E005C08091E30087FDFACF34
:1046700081E08093AB050E947E1D13C08091AE0542
:10468000813079F481E0933009F080E08093A905CE
:104690001092E9008091E800877F8093E8000E94F3
:1046A00034208091E80083FF0AC08091E800877F72
:1046B0008093E8008091EB0080628093EB00AA96E3
:1046C0000FB6F894DEBF0FBECDBFDF91CF911F9123
:1046D00008950895CF938091AB058823A1F0C091F0
:1046E000E900CF709091EC00892F817090FD80E8F7
:1046F000C82B1092E9008091E80083FD0E941722E8
:10470000CF70C093E900CF910895991B79E004C060
:10471000991F961708F0961B881F7A95C9F7809500
:104720000895AA1BBB1B51E107C0AA1FBB1FA617F8
:10473000B70710F0A61BB70B881F991F5A95A9F74A
:1047400080959095BC01CD010895EE0FFF1F059057
:10475000F491E02D0994FB01DC0102C005900D925B
:1047600041505040D8F70895FB01DC0104C08D9101
:104770000190801921F441505040C8F7881B990BD3
:104780000895FB01DC0101900D920020E1F70895EE
:10479000AEE0B0E0EEECF3E20C94B7260D891E8992
:1047A0008F89988D26E02C831A83098397FF02C096
:1047B00080E090E801979E838D83AE01455E5F4F58
:1047C000698D7A8DCE0101960E94F8234D815E811C
:1047D00057FD0AC02F813885421753070CF49A0100
:1047E000020F131FF80110822E96E4E00C94D326DA
:1047F000ABE0B0E0EEEFF3E20C94A9267C013B01C4
:104800008A01FC0117821682838181FFB9C19AE077
:10481000292ECE0101965C01F7019381F30193FDEE
:10482000859193FF81913F01882309F446C1853228
:1048300039F493FD859193FF81913F01853229F4ED
:10484000B70190E00E94D925E7CF912C412C512C43
:10485000FFE1F51538F08B3209F188F4803201F16F
:10486000833221F157FC3AC020ED280F2A3040F561
:1048700056FE1FC0929C200D1124922E06C08D3230
:1048800091F0803379F7689450F8F30193FD8591A6
:1048900093FF81913F018111DBCF20C0689451F8D3
:1048A000689452F8F2CF689453F8EFCF689454F8B4
:1048B000ECCF429C200D1124422E689455F8E5CF90
:1048C0008E3229F456FCF9C0689456F8DECF8C3647
:1048D00019F4689457F8D9CF8836B9F2982F9F7D8C
:1048E00095549330C0F08336A1F18337C1F18335FD
:1048F00009F05BC0F801C190D1908F01692D70E083
:1049000056FC02C06FEF7FEFC6010E94C3254C0129
:10491000689457F80AC00C5F1F4F2FE3298388243F
:104920008394912C6501E89457F853FC04C0481413
:10493000190409F018F5342C8114910431F5332051
:1049400009F46ACFB70180E290E00E94D9253A9439
:10495000F6CFF801808189830E5F1F4FE0CFF80109
:10496000C190D1908F01692D70E056FC02C06FEFAD
:104970007FEFC6010E94CE254C01D5CFB70180E262
:1049800090E00E94D9254A94D2CFF60157FC859138
:1049900057FE81916F01B70190E00E94D925311037
:1049A0003A94F1E08F1A9108C7CF843619F089360E
:1049B00009F074C0F80157FE6AC06191719181914C
:1049C00091918F01252D2F76D22E97FF09C09095BA
:1049D0008095709561957F4F8F4F9F4F6894D7F862
:1049E0002AE030E0A5010E940926C82ECA188C2CA6
:1049F0005D2CD6FE0CC0E89450F8C91440F4D4FEE7
:104A000005C0D2FC03C0FD2DFE7E5F2E892C54FE16
:104A10008FC0FE01EC0DF11D8081803309F081C053
:104A2000252D297E522E852D8870382E53FC8FC05F
:104A300050FE89C09C2C841418F44C0C942C9818AB
:104A400054FE8BC0B70180E390E00E94D92552FE4E
:104A500009C088E790E051FE02C088E590E0B70108
:104A60000E94D925C91408F484C0CA94D12C9FEFA0
:104A7000C91AD90ACA0CDB1CF60182916F01B70171
:104A800090E00E94D925AC14BD04B1F758CF6191D4
:104A90007191072E000C880B990B93CFD52CE894BD
:104AA000D4F82AE030E0853739F1952D997FD92E59
:104AB0008F3601F148F48835A9F0F7018681978196
:104AC0002B96E2E10C94C526803749F08837A9F788
:104AD000D4FE02C06894D2F820E130E00DC06894A2
:104AE000D4F8F6CF54FE03C0E92FE660DE2E20E1B5
:104AF00032E002C028E030E0F801D7FE0DC061913D
:104B00007191819191918F01A5010E940926C82E72
:104B1000CA18E894D7F86BCF6191719190E080E06A
:104B2000F2CF52FC02C083947ECF839483947BCFD8
:104B3000852D867809F477CFF6CFB70180E290E033
:104B40000E94D92583948414C0F3312C79CF342C5E
:104B50003818841408F474CFF8CF852D867809F4BA
:104B600081CF8BE251FE80E257FC8DE2B70190E0ED
:104B700077CFB70180E390E00E94D9259A9472CF55
:104B80008FEF9FEF9DCFFC010590615070400110A9
:104B9000D8F7809590958E0F9F1F0895FC01615066
:104BA000704001900110D8F7809590958E0F9F1F4F
:104BB00008950F931F93CF93DF93182F092FEB01C5
:104BC0008B8181FD09C01FEF0FEF812F902FDF91A7
:104BD000CF911F910F91089582FF14C02E813F81C4
:104BE0008C819D81281739073CF4E881F981CF0138
:104BF00001969983888310838E819F8101969F837C
:104C00008E83E3CFE885F985812F0995892BA1F360
:104C1000DACFFA01AA27283051F1203181F1E89446
:104C20006F936E7F6E5F7F4F8F4F9F4FAF4FB1E09F
:104C30003ED0B4E03CD0670F781F891F9A1FA11D9A
:104C4000680F791F8A1F911DA11D6A0F711D811D9B
:104C5000911DA11D20D009F468943F912AE0269F60
:104C600011243019305D3193DEF6CF010895462FBF
:104C70004770405D4193B3E00FD0C9F7F6CF462FA0
:104C80004F70405D4A3318F0495D31FD4052419309
:104C900002D0A9F7EACFB4E0A695979587957795C6
:104CA0006795BA95C9F700976105710508959B014D
:104CB000AC010A2E06945795479537952795BA95D6
:104CC000C9F7620F731F841F951FA01D0895F999DE
:104CD000FECF92BD81BDF89A992780B50895A8E1CD
:104CE000B0E042E050E00C949B26262FF999FECFCD
:104CF00092BD81BDF89A019700B4021639F01FBA2F
:104D000020BD0FB6F894FA9AF99A0FBE089503964B
:104D1000272F0E9476260E947526252F0E94762630
:104D2000242F0C9476260196272F0E9476260C9429
:104D30007526DC01CB01FC01F999FECF06C0F2BD5E
:104D4000E1BDF89A319600B40D9241505040B8F749
:104D500008952F923F924F925F926F927F928F921F
:104D60009F92AF92BF92CF92DF92EF92FF920F93FA
:104D70001F93CF93DF93CDB7DEB7CA1BDB0B0FB604
:104D8000F894DEBF0FBECDBF09942A8839884888C1
:104D90005F846E847D848C849B84AA84B984C88457
:104DA000DF80EE80FD800C811B81AA81B981CE0F4E
:104DB000D11D0FB6F894DEBF0FBECDBFED01089533
:104DC000F894FFCF3C133C1394139413E613691328
:104DD0006913691302148E149D149D1463156315D1
:104DE0006C156C156E156C156C156C1563156315CB
:104DF00073156C156C1573154022682251236822B7
:0C4E000051239B22BC22512313231F23AB
:104E0C00808182838485868788898A8B8C8D8E8F1E
:104E1C009091929394A0A1A2A3A4A5A6A7A8A9AA95
:104E2C00ABACADAEAFB0B1B2B3B4C0C1C2C3C4C50C
:104E3C00C6C7C8C9CACBCCCDCECFD0D1D2D3D40063
:104E4C0001A00200A10205A1020021007F220003A3
:104E5C005603FD1C3C1D001D381D341D014C617991
:104E6C0065723A2044656661756C74004C617965B5
:104E7C00723A205261697365004C617965723A200F
:104E8C004C6F776572004C617965723A2041646AA7
:104E9C00757374004C617965723A20556E64656661
:104EAC002D256C640025647825642C206B253264D8
:104EBC00203A20256300202020206162636465660F
:104ECC006768696A6B6C6D6E6F70717273747576EE
:104EDC007778797A31323334353637383930524540
:104EEC004254202020202020203B27202C2E2F2015
:104EFC002020E200E900EA00B500B600B700CD00C2
:104F0C008301CC008A019201940121022302240224
:104F1C002502260227022A02B300B4006F0070009B
:104F2C00818283F6F7313332366697C6343500000A
:104F3C000000000008101818100800E200E900EA50
:104F4C0000B500B600B700CD008301CC008A0192F9
:104F5C000194012102230224022502260227022A9F
:0C4F6C0002B300B4006F0070008182836B
:00000001FF
