:100000000C949F040C94E6040C94E6040C946B1876
:100010000C94E6040C94E6040C94E6040C94E604B8
:100020000C94E6040C94E6040C943E290C94122AD9
:100030000C947B240C94E6040C94E6040C94E604E3
:100040000C94E6040C94E6040C94E6040C94E60488
:100050000C94E6040C94D2240C94E6040C94E6046C
:100060000C94E6040C94E6040C94E6040C94E60468
:100070000C94E6040C94E6040C94E6040C94E60458
:100080000C94E6040C94E6040C94E6040C94E60448
:100090000C94E6040C94E6040C94E6040C94E60438
:1000A0000C94E6040C94E6040C94E60400000000B2
:1000B00000000000000000008080C0E0E0F0F0F0F0
:1000C000F8F8F8F8FCFCFCFCFCFCFCFCFCFCFCFC80
:1000D000FCFCFCFCFCF8F8F8F8F0F0F0E0E0C00004
:1000E0000000000000000000000000000000000010
:1000F0000000000000000000000000000000000000
:1001000000000000000000000000000000000000EF
:1001100000000000000000000000000000000000DF
:1001200000000000000000000000000000000000CF
:10013000000000E0F07C7E3F1F1F0F0F070707073E
:10014000070303030707070707076F6F7F7F7FFF1B
:10015000FFFFFFFFFFFFFFFFFFFFFFFFFFFFFFFEB0
:10016000FCF8F0E0C0000617BBFFFFFFFFFFFFD861
:10017000D8D8D8C0C0808000000000C06060707017
:1001800070707878B0C0C0E0E0E0E0E0E04000806F
:1001900080C0C080000000000000000000000000DF
:1001A000000000000000000000000000000000004F
:1001B0000000030300000000000000000000000039
:1001C000000000000000000000000000000000002F
:1001D000010103070F1F3F7F7F7FFFFFFFFFFFFF2F
:1001E000FFFFFFFFFFCFC00000010476767777772F
:1001F000F7FFFFFFFFFFFEFEFE6C6C6C6CC0C000E3
:10020000000406070703030303010D06060707079B
:100210000F0F0F0D0E0E0E0E8FAFAEBEB6B6B8B8E6
:10022000F8F8B0B0800000000000000000000000FE
:1002300000000000000000000000000000000000BE
:1002400000000000000000000000000000000000AE
:10025000000000000000000000060E0C1D3D393FAC
:100260007F7F7F7F7F3F7F60000000007677F7FF12
:100270007FFFFFFFFF7F7F7F7F7F777777777666D0
:10028000666644000000000000000000000000005E
:1002900000000000000303030333373737777F7F05
:1002A0007FFFFFFFFFFFBA9000000000000000008A
:1002B000000000000000000000000000000000003E
:1002C000000000000000000000000000000000002E
:1002D000000000000000000000000000000000001E
:1002E000000000000000000000000000000000000E
:1002F00000000000000000000080C0E0E0F0F0F826
:10030000F8F8FCFCFCFCFCFCFCFCFCFCFCFCFCFC35
:10031000FCFCFCFCF8F8F8F8F0F0F0E0E0C0C0807D
:1003200000000000000000000000000000000000CD
:1003300000000000000000000000000000000000BD
:10034000000000008080808000C0C0E0E0E0E0E0CD
:10035000E0C0F07070F0E0E0C080800000000000BD
:10036000008080C0C0D8D8D8D8FBFBFBFBFBBF36D1
:10037000360000C0E0F0F0F8FCFFFFFFFFFFFFFFDA
:10038000FFFFFFFFFFFFFFFFFF7F7F7F6F4F07072D
:1003900007070707070707070707070F0F0F1F1FA5
:1003A0003F3E7CF8E08000000000000000000000FC
:1003B00000000040E0F0F0F07070B03C3E2E0E0EF9
:1003C0000E0E0E1D1F1F1F0707070707050501015A
:1003D000010303030604000080C1C1606C6C6CEC77
:1003E000FEFFFFFFFFFFFFFFFF7777776604000048
:1003F0000080C7FFFFFFFFFFFFFFFFFFFFFFFF7F43
:100400007F3F1F0F0F0703010000000000000000E6
:1004100000000000000000000000000000000000DC
:1004200000000000010302000000000000000000C6
:10043000C0E6FFFFFFFFFFFFFFFFF7F7F7F7F7E764
:10044000E3E3C3C3C00000000000000000000000A0
:100450000000000000C0ECE6E6E6F6F7F7F7F7F775
:10046000F7F7FFFFFFFFFFFBFB73732300000000A4
:10047000607B3F3F7F7F7F7F7F3B391D1C0E0600E7
:10048000000000000000000000000000000000006C
:10049000000000000000000000000000000000005C
:1004A00000000000000000000000000029001E0005
:1004B0001F002000210022002B0014001A00080059
:1004C00015001700E00004001600070009000A00EC
:1004D000E1001D001B000600190005000000E200FD
:1004E000E30001512C002F003500270026002500D5
:1004F000240023002D00130012000C0018001C0023
:10050000340033000F000E000D000B00E500380032
:100510003700360010001100000031002A0002519F
:10052000280030003A003B003C003D003E003F0008
:100530002B00000059005A005B000000E0000000A2
:100540005C005D005E000000E10000005F006000F4
:10055000610062000000E2000100010001000100F2
:1005600045004400430042004100400057000000A5
:10057000F8005200F7000000850000004F00510015
:10058000500000002E0000000000000000000000ED
:10059000000001004C0001000100010029000000E2
:1005A000000000000000A6002B000000000000007A
:1005B00000000000E000C35CC55CC75CC95CCB5CAC
:1005C000E100C45CC65CC85CCA5CCC5C0000E200B4
:1005D000010001000100C25CA900550054000000A8
:1005E00046000000AA0000004D0052004A00000032
:1005F000A80000004F005100500000002E00000035
:100600000000000000000000000001004C0001009C
:100610000100010032190A00047F3F1F6432146494
:100620003214783C1E1E140A052223252628292A66
:100630002C2D2F3032333536383A3B3D3E40424345
:100640004547494A4C4E5051535557595A5C5E6084
:1006500062646668696B6D6F71737577797B7D7F96
:1006600081838587898A8C8E90929496989A9C9E95
:100670009FA1A3A5A7A8AAACAEAFB1B3B4B6B8B9B1
:10068000BBBCBEBFC1C2C3C5C6C7C9CACBCCCDCE19
:10069000D0D1D2D2D3D4D5D6D7D7D8D9D9DADADBFC
:1006A000DBDBDCDCDCDCDCDDDDDDDDDCDCDCDCDC88
:1006B000DBDBDBDADAD9D9D8D7D7D6D5D4D3D2D2C7
:1006C000D1D0CECDCCCBCAC9C7C6C5C3C2C1BFBEAF
:1006D000BCBBB9B8B6B4B3B1AFAEACAAA8A7A5A31A
:1006E000A19F9E9C9A98969492908E8C8A898785D9
:1006F00083817F7D7B79777573716F6D6B696866B8
:100700006462605E5C5A5957555351504E4C4A4989
:1007100047454342403E3D3B3A3836353332302F31
:100720002D2C2A292826252322FFAA7F55400001A7
:1007300001010101010101010202020202020202A1
:100740000203030303030303030404040404040473
:100750000505050505060606060607070707070837
:10076000080808090909090A0A0A0B0B0B0C0C0CEA
:100770000D0D0D0E0E0E0F0F0F1010111111121284
:1007800013131414151516161717181819191A1A01
:100790001B1B1C1D1D1E1E1F202021222223242462
:1007A000252626272829292A2B2C2D2D2E2F30319E
:1007B0003232333435363738393A3B3C3D3E3F40B0
:1007C0004142434445464748494A4C4D4E4F50519B
:1007D0005354555658595A5B5D5E5F616264656655
:1007E00068696B6C6D6F7072737577787A7B7D7EDC
:1007F0008082838587888A8C8E8F91939596989A2C
:100800009C9EA0A2A3A5A7A9ABADAFB1B3B5B7BA43
:10081000BCBEC0C2C4C6C9CBCDCFD1D4D6D8DBDD17
:10082000DFE2E4E7E9EBEEF0F3F5F8FAFDFF00AE06
:1008300000AF00DA02818FD9F1DB40A4A62EAF0011
:10084000A0C000A1C800AED580A81FD300408D1461
:1008500020000403300000000E034C0069006C000F
:10086000790035003800000010036C0069006C004E
:10087000690075006D00730000000403090409029B
:100880003B00020100A0FA0904000001030101007D
:100890000921110100012240000705810308000A17
:1008A00009040100010300000009211101000122D7
:1008B00032000705820320000A1201100100000027
:1008C00008D8042DEB00010102030105010980A1F4
:1008D00001850319012AB700150126B70095017596
:1008E000108100C0050C0901A101850419012AA08D
:1008F00002150126A002950175108100C0050109AD
:1009000006A101050719E029E715002501950875DD
:100910000181029501750881010507190029FF155C
:100920000026FF00950675088100050819012905B4
:10093000950575019102950175039101C00011247F
:100940001FBECFEFDAE0DEBFCDBF04B603FE27C087
:100950008091B6059091B705A091B805B091B90501
:100960008730904BA740B04BD1F41092B60510924F
:10097000B7051092B8051092B90514BE84B7877FE9
:1009800084BF0FB6F894A895809160008861809329
:100990006000109260000FBEE0E0F8E3099512E0FD
:1009A000A0E0B1E0E2E6F0E602C005900D92AE32C2
:1009B000B107D9F725E0AEE2B2E001C01D92A63B37
:1009C000B207E1F70E947E260C94F72F0C940000EA
:1009D000CF93C0E28C33910520F4FC01E35BFE4F22
:1009E000C0811F92CF939F938F93FB0180811F92B1
:1009F0008F9381811F928F938CE391E09F938F93CC
:100A00001F9288E18F9385E492E09F938F930E94D9
:100A1000BA2C8DB79EB70E960FB6F8949EBF0FBE38
:100A20008DBF80912E0290912F02449761F4109215
:100A30002F0210922E02E0E3F2E080E2819392E036
:100A4000E434F907D9F780912E0290912F02FC012E
:100A5000E05DFD4FC083019690932F0280932E029C
:100A6000CF9108950C944B05CF93C82F0E943C0959
:100A7000811101C0C2E08C2FCF9108950E943C09E2
:100A800060E072E0882321F08CEA92E00C94141369
:100A90008CEA90E0FBCFFB01228121110E94E80447
:100AA00081E008950E94AC104FEF60E080E00E946A
:100AB000B10C81E00C94711081E0089508950C94BC
:100AC0005E051F93CF93DF9300D000D00F92CDB778
:100AD000DEB749835A836B833091E80289819A811A
:100AE00031111DC06623B9F02223A9F00E94F9211B
:100AF000182F682F89819A810E94A22169817A81A9
:100B0000812F0F900F900F900F900F90DF91CF914A
:100B10001F910C9413060E94D021182FEFCF0E9432
:100B2000F92169817A81EDCFFC01262F4081518125
:100B30006281738184810C946105CF93DF93EC0112
:100B400060E00E949405BE01DF91CF910C945F0597
:100B50000E943023811102C00E94CD230C94EE0725
:100B60000C94F10708950C94B20581E008950C945B
:100B7000B505CF93C82F0E94B3058C2FCF910C944D
:100B8000B70508950E94931D0E94C1052FEF84E3CD
:100B90009CE0215080409040E1F700C000000C94A0
:100BA000F6240F931F93CF93DF93EC0161E00E9433
:100BB00094058C01BE010E943205882359F1BE01C3
:100BC000C8010E942D15882329F1BE01C8010E9489
:100BD0007F158823F9F0BE01C8010E94A216882360
:100BE000C9F0BE01C8010E94D711882399F08A81FB
:100BF000882339F001158CE5180751F00E3D1C458E
:100C000079F0CE01DF91CF911F910F910C945C058B
:100C10000E94C20580E0DF91CF911F910F9108954E
:100C20000E94CD23F7CF972F70E026E0929F600DB2
:100C3000711D1124FB019CE3899FE00DF11D11241E
:100C4000EE0FFF1FE455FB4F859194910895CF93CC
:100C5000DF930E9413060E941307EC01811522E521
:100C60009207E8F5811531E5930708F0ACC0883E9E
:100C7000910510F5803E910570F5883A910570F464
:100C8000853A910508F078C08130910521F10097EF
:100C900011F1049700F5D0E0C0E01DC08F3B910535
:100CA000D0F7C85AD0E0CC0FDD1FC757DE4F0990F0
:100CB000D881C02DD4640FC0811540E5940708F099
:100CC00066C0C11580E4D80708F05EC0CE019A95D1
:100CD00081159F4100F7CE01DF91CF9108958115D5
:100CE00036E5930718F5811545E5940708F083C0AC
:100CF000C11584E5D80708F079C09C2F9695969584
:100D00009E0123703327C115D34508F461C0C1E0AB
:100D1000D0E002C0CC0FDD1F2A95E2F730E2939FAE
:100D2000C0011124C82BD92BDA68D5CFC1158AE5AB
:100D3000D80778F4C11599E5D90708F066C0C11540
:100D400028E5D20708F4A7CFDC2FCC27C06FD06AE4
:100D5000C2CFCE0190568115904208F09CCF8D2FC6
:100D60008F710E94AA0790E0982F882788279F718B
:100D70009C012C2BE90147C0C55AD0E0C954DE4F75
:100D8000C881D0E0D064A7CFDF70D06AA4CFE4E000
:100D900096958795EA95E1F783702C2F26952695F1
:100DA000237040E2249F90011124382B8C2F8370F4
:100DB000C1E0D0E002C0CC0FDD1F8A95E2F7C22B64
:100DC000D32BDC6888CFD82FCC27C16FD06A83CFD4
:100DD000C1E0D0E002C0CC0FDD1F2A95E2F720E28F
:100DE000929FC0011124C82BD92BEBCFDC2FCC272D
:100DF000C46FD06A70CF0E94AA07C82FD0E0DC2F42
:100E0000CC27CC27DF71D06266CF8C2F8F700E94E9
:100E1000AA0734E0D695C7953A95E1F7CF709C2F95
:100E2000EC01D06958CF82389105B1F1B0F481332B
:100E3000910509F475C048F48932910509F469C037
:100E40008A32910509F473C008958533910509F438
:100E500059C08933910501F10895833E9105A9F1A7
:100E600038F4803E9105F9F0823E910549F10895EC
:100E7000863E9105A9F1873E9105C9F1843E910511
:100E800019F52091A80521FF1FC08091A70584FDB9
:100E900014C087EE90E008952091A7052370A1F07B
:100EA00080EE90E008952091A70520FD47C0309185
:100EB000A80530FF09C024FF44C090E080E004C0D2
:100EC0002091A70522FDF7CF08952091A70522FDC7
:100ED0003BC03091A80530FDE3CF24FFF5CFEDCF27
:100EE0002091A70523FFF0CF24FDE7CFD2CF20919B
:100EF000A70523FD2CC03091A80531FFEECF84EE6D
:100F000090E008952091A70525FFDECF89E290E0CB
:100F100008952091A70525FFD7CF85E390E0089598
:100F20002091A70526FFD0CF8AE290E00895209176
:100F3000A70526FFC9CF81E390E0089589E390E0FB
:100F4000089583EE90E0089582EE90E0089586EE95
:100F500090E008959091A70592FF06C0282F287170
:100F60002830F9F4877F846093FF06C0282F28710A
:100F70002831F1F4877E84612091A80520FF06C006
:100F8000382F38713830D9F4877F816021FF06C04F
:100F9000282F28712831D1F4877E816194FD877EC6
:100FA0000895282F24712430F9F68B7F8860DCCFD8
:100FB000282F2471243101F78B7E8861DDCF382FF3
:100FC0003171313019F78E7F8860E0CF282F217181
:100FD000213121F78E7E8861E1CF08950C94ED07D1
:100FE00008950C94F007E82FF0E0EC58FC4F808156
:100FF0000895089580EA8A95F1F7089508950E946A
:101000005A09809104018091040195E0811190E0DA
:1010100090937F0385E0891B80937E03A0ECB1E071
:1010200061E070E08D91E82FE295EF70F0E041A172
:101030008F709B0101C0220F8A95EAF7922F90953D
:10104000942391A382A1822B82A381E0A53CB807BF
:1010500049F7AAEBB1E061E070E08D91E82FE295ED
:10106000EF70F0E041A18F709B0101C0220F8A95C3
:10107000EAF7922F9095942391A382A1822B82A3C9
:1010800081E0A03CB80749F7EAE6F3E0A4E7B3E063
:1010900084E793E011921D928E179F07D9F785E0A0
:1010A0000E9405090E94A8050C946F090E943C0942
:1010B0008823F9F080917E0390E08C589C4F0E9429
:1010C0009F09811113C080915D028F5F80935D0243
:1010D000863050F0E0917E03F0E0EC58FC4F108237
:1010E00011821282138214820C94B00510925D0258
:1010F000FBCF80917F0390E08C589C4F0E94BC09ED
:101100000C94FE078F929F92AF92BF92CF92DF9284
:10111000EF92FF920F931F93CF93DF9380ECA82E53
:1011200081E0B82E0AE613E0912CCC24C394D12C94
:10113000F50181915F01C82FC295CF70D0E099A1D0
:101140008F70760101C0EE0C8A95EAF7892F8E29FF
:1011500089A38AA18E2C809488218AA30E94FA07F1
:10116000EAEBF1E050E040E020E03191A32FA295BE
:10117000AF70B0E090968C9190E03F7002C0959572
:1011800087953A95E2F780FD3CC08C2D042E01C076
:10119000880F0A94EAF7282B4F5F5F4F46305105BE
:1011A00021F789A1882289A28AA1E82AEAA2F80166
:1011B0008081281741F1208381E0982A0F5F1F4F1B
:1011C000F5ECAF16F1E0BF0609F0B2CF60917F03F6
:1011D00070E06C587C4F292D45E08AE693E00E9430
:1011E00006090E945608892DDF91CF911F910F911A
:1011F000FF90EF90DF90CF90BF90AF909F908F9037
:10120000089580E0C8CF80E0D8CF0895FF920F9373
:101210001F93CF93DF93F82E092F162FD72FC42FAC
:10122000222349F081E0809360020E94AB249093D6
:101230005F0280935E02809160028823A1F080911A
:101240005E0290915F020E94C324069760F0EF2D2A
:10125000F02FA12FBD2FCE0FDF2FD11DEC17FD07D3
:1012600041F410926002DF91CF911F910F91FF9096
:10127000089581918D93F2CF80916102811111C007
:101280008091D80080618093D8008AE18A95F1F737
:1012900000C09091D900892F817090FF82E08093E7
:1012A000610281E090916102913009F080E008953F
:1012B0000C943C090E945809809304018091040118
:1012C00064E0882349F080E00E946B0A0E943C0998
:1012D000882321F00C94760984E0F6CF08950E94CB
:1012E0003C09811102C00C947C09089562E070E011
:1012F00085E091E00C94181862E070E085E091E0E0
:101300000C9421180E94960F882361F089E692E0E0
:101310000E949C0F81E090E00E94FA18892B11F442
:101320000C94990F089580916802883039F460E038
:1013300089E692E00E94B410109268020895CF935B
:10134000DF93D82FC92F0E94820990E080E00E948D
:10135000FA18009779F4ED2FFC2FDC01AD59BD4F41
:101360002C912193019685309105B9F781E0DF91A9
:10137000CF91089580E0FBCFCF93DF93D82FC92F73
:101380000E949309ED2FFC2F90E080E02191DC0179
:10139000AD59BD4F2C93019685309105B9F7DF917A
:1013A000CF910895EF92FF920F931F93CF93DF9306
:1013B000EB01E82FD11110C0442321F0F0E0E25DF1
:1013C000F84FE4916E2F7E2F8E2FDF91CF911F91DA
:1013D0000F91FF90EF9008950D2F10E0282F30E02F
:1013E000442329F0225D384FF901249130E0F6E0E2
:1013F000CF9FC0011124EFEFF0E0BF010E94D02B7E
:10140000AB018C2F90E0880F991FA5E5A49FB00138
:10141000A59F700D1124861B970B982F990F980F7D
:10142000BF01601B710B629FD001639FB00D729F63
:10143000B00D11248B2F9D9FB0011124672F7727AA
:10144000EF01C61BD70BBE01629FE001639FD00D69
:10145000729FD00D11247F01E91AF108E09EB001BE
:10146000E19E700DF09E700D1124672F7727E61B0B
:10147000F70BE29F8001E39F100DF29F100D1124E6
:10148000E12F722F4230510599F048F44115510572
:1014900069F04130510581F0EB2F8D2F07C04430AA
:1014A000510569F080F046305105B1F76E2F8DCFB0
:1014B000E22F7B2F812FFACFE22F7D2FF7CFEB2F5B
:1014C000822F712FF3CF7B2F822FED2FEFCF41E0B3
:1014D0000C94D2090895E8E1F1E0808361830895D6
:1014E000CF93DF93762FE901682F842F0E94670A3C
:1014F000798368838A83DF91CF910895493708F013
:1015000048E70C94700A80918003982F9E7F61F4C5
:10151000817082608093800380918303893718F003
:1015200088E78093830308958635B0F381708465DE
:10153000F1CF88E090E00C94612FCF92DF92EF9290
:10154000FF926B017C010E94830AB701A60188E02B
:1015500090E0FF90EF90DF90CF900C947F2FE0E829
:10156000F3E083E0808311828FEF828388E78383B7
:101570001482A6EAB2E012968C91129783601296BA
:101580008C9360817181828193810C949D0A8091FA
:10159000800380FF02C08695089580E008959091B1
:1015A0008403933018F49F5F90938403882351F051
:1015B00060918003709181038091820390918303F5
:1015C0000C949D0A089581E00C94CF0A90918403B5
:1015D000992319F0915090938403882351F06091DE
:1015E00080037091810380918203909183030C9416
:1015F0009D0A089581E00C94E60A70E00C9446126E
:10160000609119018091800380FF0AC080911801C8
:1016100023E0829FC00111248B579C4F0C94FD0A3C
:1016200080911A0190911B0123E0829FF001112407
:10163000EB57FC4F891750F71182108212828F5F8F
:101640003396F8CF9091800390FF14C090911A01C7
:1016500020911B0133E0939FF0011124EB57FC4FC5
:10166000921710F00C94000B8183608342839F5F7C
:101670003396F6CF0895CF93DF9300D00F92CDB776
:10168000DEB79091800390FF0AC09E012F5F3F4F0D
:101690000E947E0A4B8169818A810E94220B0F90F1
:1016A0000F900F90DF91CF910895CF93DF93EC01CE
:1016B000EC81F0E0E75DF94F4491E0E8F3E062810E
:1016C00081810E943B0B8C818F5F8C83DF91CF9156
:1016D0000895CF93DF93EC01E0E8F3E0438162816A
:1016E0008C810E943B0B8C818F5F8C83DF91CF912B
:1016F00008950F931F93CF93DF9300D00F92CDB730
:10170000DEB78C018091710281110AC09E012F5FAA
:101710003F4F48E76FEF0E947E0A8A8180937102F3
:10172000F8016481613069F08091710240E06623C4
:1017300061F040E0623011F44091710280E060E0BD
:1017400004C06091710240E080E00E94220BF80129
:10175000848190E0019663E070E00E94E42B848332
:101760000F900F900F90DF91CF911F910F910895DF
:10177000AF92BF92CF92DF92EF92FF920F931F939F
:10178000CF93DF9300D00F92CDB7DEB7182FF62E90
:10179000042FE22E9091800390FF3AC0E92FE69546
:1017A000AE2FB0E0A653BE4F8C918093A6029E7FD1
:1017B0009230E1F59E012F5F3F4F812F0E947E0AFC
:1017C0004B8169818A810E94220B80918103811360
:1017D00008C0809182038F1104C080918303801719
:1017E00029F08091A80282608093A802109381035F
:1017F000F092820300938303EE2051F06091800306
:101800007091810380918203909183030E949D0ACD
:101810000F900F900F90DF91CF911F910F91FF903C
:10182000EF90DF90CF90BF90AF900895823019F481
:1018300000918303CACF863019F410918103C5CF7C
:101840008930D9F3893109F6E9518E2F8170D82E6C
:10185000E695F0E0E75DF84FA590B490C12CBB246D
:1018600060911C01C61618F00E94000BAECF2C2D03
:1018700030E0A29EC001A39E900DB29E900D112457
:1018800070E00E94D02B812FD11013C0860F4091A1
:101890001A01420F532F511D9A01220F331F240F9B
:1018A000351F2B573C4F402F6F2D0E947E0AC3944B
:1018B000D7CF861BECCFE0E8F3E09181282F43815E
:1018C00062818AE0890F0C94B80B81E00C945B0C68
:1018D000E0E8F3E09181282F4381628186EF890F50
:1018E0000C94B80B81E00C94680CE0E8F3E06281A2
:1018F00021E1620F08F46FEF282F438181810C945E
:10190000B80B81E00C94750CE0E8F3E0628121E112
:10191000621B08F460E0282F438181810C94B80B8E
:1019200081E00C94840CE0E8F3E0438121E1420F74
:1019300008F44FEF282F628181810C94B80B81E06D
:101940000C94930CE0E8F3E0438121E1421B08F49E
:1019500040E0282F628181810C94B80B81E00C94C7
:10196000A20C20E00C94B80BEF92FF921F93CF9340
:10197000DF93EC0110E0EE24EA94F12C60911C015D
:10198000161770F00E94000B9A818C8190FF27C07F
:101990008F5F8C83DF91CF911F91FF90EF9008951F
:1019A00020911A01422F410F5527551FCA019A0154
:1019B000220F331F280F391F2B573C4F70E0C701F0
:1019C0000E94E42B962F8C814091830360918203C7
:1019D000199F800D11240E947E0A1F5FCFCF815076
:1019E000D8CF9F92AF92BF92CF92DF92EF92FF92A9
:1019F0000F931F93CF93DF93EC018A81BB24BA949A
:101A000080FD02C0BB24B3948C8181110AC081E0A7
:101A1000B81227C080911C0181508093730281E02D
:101A20008C83A12C80911C01A816F0F00E94000B61
:101A30008091730291E0B9125DC0811156C080910E
:101A40001C018150809373021C82DF91CF911F9102
:101A50000F91FF90EF90DF90CF90BF90AF909F904D
:101A6000089510927302DBCF00911A01CA2CD12C79
:101A70000C0D1D2D111DC801880F991F080F191F6E
:101A80000B571C4FF80111821082128234E0E32EB2
:101A9000F12C912C80917302890D893004F18770AB
:101AA000082E000C990BC816D90691F48091830377
:101AB0008E9DA0018F9D500D1124559547955595EC
:101AC0004795980160918203809181030E947E0A6C
:101AD0009B0CF1E0EF1AF108E9F6A394A3CF87FF7E
:101AE000DFCF90911C01890FDBCF8150809373026F
:101AF000BC82ABCF90E0019660911C0170E00E9427
:101B0000E42B809373028C83A0CFEF92FF920F930C
:101B10001F93CF93DF93EC018C81811109C081E089
:101B20008C831092720292E09093170180931601B9
:101B300080911A0190911B0123E0829FF0011124F2
:101B4000EB57FC4F891768F110E003E060911C012E
:101B5000161768F10E94000B809116012091720205
:101B6000280F2093720290911701980F90931701FC
:101B7000191654F4022E000C330B40911C014150F5
:101B8000550B2417350734F0819580931601813069
:101B900009F41C82DF91CF911F910F91FF90EF907C
:101BA00008951182108212828F5F3396CBCFE12E7F
:101BB000F12C70E0C7010E94E42B20911A01820FE2
:101BC000482F50E020917202022E000C330BE216D7
:101BD000F306BCF020911701022E000C330B2E15DA
:101BE0003F057CF0809F900111242B573C4F409182
:101BF000830360918203809181030E947E0A1F5FAC
:101C0000A5CFFA01EE0FFF1FE40FF51FEB57FC4FB6
:101C1000118210821282F3CF8F929F92AF92BF9265
:101C2000CF92DF92EF92FF920F931F93CF93DF93A8
:101C3000EC014C81042F10E09801D8010E94282C5F
:101C40009B01AC010E943E2C4B015C01E0E2F0E004
:101C5000E01BF10BA5E5B0E0AC019B010E943E2C1E
:101C60006B017C019F01DF010E94202C9B01AC01D4
:101C70000E94492C9B01AC01280D391D4A1D5B1D9A
:101C8000C701B6010E94F82BF22E822F90E039E2B4
:101C90003F1560F143E0249F90011124359527956D
:101CA000122F109500E085E5E82EEF1880911C01B9
:101CB000081758F10E94000B9C8181E0992319F0CC
:101CC000903219F48FEF8093150180911501890FDF
:101CD0008C83DF91CF911F910F91FF90EF90DF9058
:101CE000CF90BF90AF909F908F90089525E530E002
:101CF000B901681B790B9B01220F331F260F371F79
:101D000037FFCCCF2F5F3F4FC9CF8E2D01FD8F2DD9
:101D100020911A01622F600F7727771F9B01220FF6
:101D2000331F260F371F2B573C4F412F60918203E3
:101D30000E947E0A0F5FBACF0F931F93CF93DF935A
:101D4000EC0110E000E090911C019017110609F0E1
:101D50006CF40E94000B8C8190E0019681709927B1
:101D60008C83DF91CF911F910F91089520911A01DB
:101D7000A801420F511D9A01220F331F240F351F56
:101D80002B573C4F4C816091820380918103969543
:101D90009017110651F04CF0442349F04091830311
:101DA0000E947E0A0F5F1F4FCECF4423B9F340E05D
:101DB000F7CF8F929F92AF92BF92CF92DF92EF9226
:101DC000FF920F931F93CF93DF93FC01B280948017
:101DD00081E0848300E015E05BE4A52E88248394F1
:101DE000EE24EA94F12C7BE4C72ED12C80911C01C7
:101DF000081770F0DF91CF911F910F91FF90EF9036
:101E0000DF90CF90BF90AF909F908F900C94000B7D
:101E1000C02FD0E01C9FF0011D9FF00D1124E95848
:101E2000FD4F91101CC01382128220911A01CE0125
:101E3000820F911D9C01220F331F280F391F2B5732
:101E40003C4F1C9FF0011D9FF00D1124E958FD4FE0
:101E50004281618180810E947E0A0F5FC7CF23810A
:101E6000222379F12150238334818A2D821B311161
:101E700001C0822F1C9FF0011D9FF00D1124E95815
:101E8000FD4F90918303899FC0011124B6010E94E8
:101E9000D02B6283211104C0332311F01482A3825A
:101EA00022E02B1510F21C9FF0011D9FF00D112454
:101EB000E958FD4F80918103808380918203818363
:101EC000B4CF0E949D2C823091400CF0AECF82E0C6
:101ED0008B1530F50E949D2CB7010E94E42B1C9FAE
:101EE000F0011D9FF00D1124E958FD4F808322E081
:101EF0002B15C8F40E949D2C209182032695622FF9
:101F000070E00E94E42B280F1C9FF0011D9FF00D34
:101F10001124E958FD4F21831282A382848285CF48
:101F200080918103DCCF20918203EECF8091A802C3
:101F300008951092A802089525E0E0E8F3E0DC019E
:101F400001900D922A95E1F72091A6023091A70207
:101F50004091A802FC012583368347830895E6EA71
:101F6000F2E011828281846082830895E0E8F3E0E8
:101F700080818E7F80830E94AF0FE6EAF2E082814B
:101F8000816082832FEF80E792E021508040904073
:101F9000E1F700C000000C94000BE0E8F3E0808162
:101FA0008E7F808360817181828193810E949D0AEE
:101FB0000E94AF0FE6EAF2E08281816082832FEF18
:101FC00080E792E0215080409040E1F700C000009F
:101FD0000C94000B60918003669570E04BE050E03C
:101FE0008DE191E00E94AD2C892B19F481E0809362
:101FF000A7020E94AB249093A00280939F0280913D
:10200000A80284608093A80208959091800390FFB5
:102010003AC0917081112DC092609093800380919D
:10202000A80281608093A802662351F0609180032A
:102030007091810380918203909183030E949D0A95
:1020400060918003669570E04BE050E08DE191E097
:102050000E94AD2C892BA1F00E94AF0F81E08093EC
:10206000A2024091830360918203809181030C94CA
:10207000B10C8B3210F09465D0CF880F982BCDCF58
:102080000E94EA0FEBCF0895682F909180039695F8
:1020900081E0890F8B3208F081E00C94051081E01B
:1020A0000C944410682F9091800396958FEF890FC0
:1020B00009F48AE20C94051081E00C94521061E05E
:1020C0000C940510E0E8F3E08081816080838695C0
:1020D0000C945F108091800380FD0C94CD0F0C94C4
:1020E000621060E00C9405108091A502811133C04C
:1020F0000E943023811104C00E94CD230E94AF0AA8
:102100000E94990A609380037093810380938203F5
:10211000909383038091A80283608093A8026E7FCE
:1021200061F40E94AF0A0E94990A60938003709341
:10213000810380938203909383030E94830A0E9409
:10214000AF0F8091800380FF03C086950E947110BD
:1021500081E08093A5020895E0E8F3E0808181604A
:10216000808386950C9471101F93CF93DF93EC01BD
:10217000162F8F8180FF0CC0888180FF24C0809142
:102180008003816080938003888186950E9405107A
:102190008F8181FF06C0212F4B816A8189810E9436
:1021A000B80B8F8182FF05C08E81882379F00E9451
:1021B000EA0F8F8183FF03C081E08093A202DF9149
:1021C000CF911F9108950E94B60FE2CF0E94AF0FEA
:1021D000F0CFEF92FF920F931F93CF93DF938091F5
:1021E000A702882309F468C08091A602E0918003C9
:1021F000E695E81BE093A102823009F064C0F0E0AC
:10220000EB5DF94FE491CE2FD0E005E51BE0809126
:10221000A202882389F01092A2020E94AB249E01A0
:1022200020953095820F931F9093A00280939F0278
:102230001092A4021092A30280919F029091A0029A
:102240000E94C3248C179D07B8F1809176028823E1
:10225000B1F01092760280917402909175020E9402
:10226000C3248033954758F00E94AB2490937502A5
:10227000809374028091A80288608093A802E09005
:10228000A302F090A402E0919F02F091A002CE0F71
:10229000DF1FD093A002C0939F028FE992E0F80164
:1022A00009958091A3029091A402892B29F4EF282B
:1022B00019F081E080937602DF91CF911F910F9109
:1022C000FF90EF900895863049F4F0E0EE5DF94F0D
:1022D000E491CE2FD0E009E61BE099CF893051F48C
:1022E000E695F0E0E15EF94FE491CE2FD0E004EB0B
:1022F0001CE08DCF8F3051F4E695F0E0E45EF94FAD
:10230000E491CE2FD0E001EF1CE081CF853149F47C
:10231000F0E0E75EF94FE491CE2FD0E005E81DE054
:1023200076CFC8E2D0E00CE01EE0883109F46FCF30
:10233000833239F4E7E1F6E0C591D49109E71BE077
:1023400066CFC4EFD1E00CE91EE0843209F45FCF20
:10235000C0EDD7E00AE61AE0853209F058CF8E2F9B
:1023600063E00E94C42BE92FF0E0EC5EF94FE491AA
:10237000CE2FD0E009ED1EE04ACFFA01811101C055
:10238000FB010994CF93DF93C82FD62F0E94C70A71
:102390008C1740F00E94C70A8D1720F4DF91CF916F
:1023A0000C944F108C2FDF91CF910C945F101F93E2
:1023B000CF93DF93EC01FB011281111110C00E9439
:1023C0008E228272FE01E25CFC45E431F10508F0E8
:1023D0005BC0E750F04D0C941A2C0E946A10812FBC
:1023E000DF91CF911F9108954CE550E16FE470E1CA
:1023F0000E94BD11F4CF4FE450E16CE570E1F8CFDD
:1024000042E75CE065E67CE0F3CF45E65CE062E74E
:102410007CE0EECF40E95CE061E87CE0E9CF41E8B8
:102420005CE060E97CE0E4CF4EEA5CE06FE97CE0F0
:10243000DFCF4FE95CE06EEA7CE0DACF4AEF5AE0AA
:1024400063EE7AE0D5CF43EE5AE06AEF7AE0D0CF80
:1024500081E00E945F10C3CF65E082E00E94C2115C
:10246000BECF68E086E0FACF6EE089E0F7CF64E1A6
:102470008FE0F4CF67E185E1F1CF88E1EACF62E256
:1024800089E1ECCF83E2E5CF11E0A9CF539A4BB1BC
:10249000477F5BB15860EFB7F8949B01220F331F61
:1024A000260F371F280F391F2817390741F4EFBFB0
:1024B0008FE594E00197F1F700C000000895DC017A
:1024C0006D91CD0178E05BB9000000C067FF4BB9AA
:1024D000660F000000C000C000C04BB900C07A9574
:1024E00091F7E2CFCF92DF92EF92FF920F931F937B
:1024F000CF93DF936C017B0164E670E088E70E9474
:10250000D216EC0197FD12C010E000E0F601E00FDA
:10251000F11F849164E670E00E942E17EC01892B74
:1025200029F40F5F1F4F0E151F0581F70E94B11789
:10253000CE01DF91CF911F910F91FF90EF90DF902F
:10254000CF900895EDE9F3E080E092E0DF019C0197
:102550001D9221503040E1F7F093A205E093A105D0
:102560008FEF9FEF9093CF028093CE0208950E9449
:1025700034058093CA0280FD0FC080E88093C902B1
:102580000E94CC166DE070E085E498E00E94721223
:10259000892B21F080E0089580E2F0CF8091CA027B
:1025A00063E070E081FD26C082E498E00E94721230
:1025B000892B81F76DE070E082E398E00E9472124F
:1025C000892B41F70E94B724605A75418F4F9F4F66
:1025D00060939D0570939E0580939F059093A00541
:1025E0000E94A21281E08093CD028093CC021092CF
:1025F000CB0208958FE398E0D9CF2091C90236E04D
:10260000839FC0011124629F800D911D11248115AB
:1026100022E0920714F090E080E083569C4F909364
:10262000A2058093A10508950F931F93CF93DF9385
:10263000613002E0700710F060E072E04091CE027D
:102640005091CF02ADE9B3E030E020E0C1E0D0E04E
:102650002617370749F45093CF024093CE02DF91FB
:10266000CF911F910F910895FC01E20FF31FE491A8
:10267000FC91FE1781F0EC93F90115E0F695E795D2
:102680001A95E1F78E0102C0000F111FEA95E2F7DB
:10269000F801402B5F2B2F5F3F4F1196D9CF0E943F
:1026A000B724605A75418F4F9F4F60939D0570937B
:1026B0009E0580939F059093A0058091CC02811187
:1026C00008C062E070E080E398E00E947212892BFB
:1026D00019F08091CC02089581E08093CC02F9CF6B
:1026E0002F923F925F926F927F928F929F92AF92C2
:1026F000BF92CF92DF92EF92FF920F931F93CF93EF
:10270000DF932091CE023091CF022115310531F0B7
:102710008091CB0261E070E0882399F0DF91CF9146
:102720001F910F91FF90EF90DF90CF90BF90AF90EF
:102730009F908F907F906F905F903F902F90089523
:102740008F5F082F10E01B01082E02C0220C331CE3
:102750000A94E2F7A10142235323452B89F3909178
:10276000CA0290FD44C08295880F807680932A012A
:102770009801369527953695279520932D01815EF2
:1027800080932B0110922E0124E630E047E050E0C8
:1027900068E271E088E70E945D17892B09F0BECFDF
:1027A000A80125E0440F551F2A95E1F78091CA0240
:1027B00080FD2BC043565C4F04E610E020E230E081
:1027C00060E488E70E948417892B09F0A7CF0E9454
:1027D0004F13E101C095D0958091CE029091CF0228
:1027E000C823D923D093CF02C093CE0297CF880FAE
:1027F000880F880F80932A0110922D01895F8093A2
:102800002B0183E080932E01BFCFE9EAF2E080E262
:10281000DF011D928A95E9F7A9EFB1E005EF11E01C
:102820008DEFC82E81E0D82E97E0592E772473942F
:102830008D91E80129918E01240F352F311D2356EA
:102840003C4FE82FF0E0E755FD4F90E080E0652C2D
:10285000681A872C082E01C0880C0A94EAF77901BF
:10286000A12CE701B9907E01B820662D6A19677026
:10287000962E062E000C770BDB2D01C0DD0F9A94EF
:10288000EAF77195619571096770772701C0B69471
:102890006A95EAF7BD2A6081962E9B289082A394C0
:1028A00068E0A612DECF019631968830910579F660
:1028B000CA16DB0609F0BCCF04E610E020E230E0E7
:1028C00049EA52E07DCF8091CC02882369F062E032
:1028D00070E08EE298E00E947212892B19F08091CC
:1028E000CC0208951092CC028091CC0291E089270D
:1028F00008950F931F938091CD02882301F160E02A
:1029000080E00E94FD120E943E050E94701380919B
:10291000CC028823A1F00E94B72400919D0510915C
:102920009E0520919F053091A005601B710B820BC5
:10293000930B97FD04C01F910F910C9463141F918A
:102940000F910895AF92BF92CF92DF92EF92FF92D4
:102950000F931F93CF93DF937C015B01C42FD22F82
:10296000FC0182818823F9F04093D2020E94AB24BB
:102970009093D1028093D00280E28C0F883008F0CF
:1029800061C0C77081E001C0880FCA95EAF7DF9186
:10299000CF911F910F91FF90EF90DF90CF90BF905C
:1029A000AF900C94331B1091D202141340C080914D
:1029B000D0029091D1020E94C3246C01B701C501DD
:1029C0000E94F71FC816D90690F5C0E2CD0F1D175B
:1029D000B9F080E2810F883040F4177081E001C0C7
:1029E000880F1A95EAF70E943A1BC83048F481E034
:1029F0009D2F977001C0880F9A95EAF70E94331BAC
:102A0000802F0E94201BC830E8F4D77081E001C0FD
:102A1000880FDA95EAF7DF91CF911F910F91FF9020
:102A2000EF90DF90CF90BF90AF900C943A1B80E274
:102A30008C0F883038F4C77081E001C0880FCA95C8
:102A4000EAF7E9CFDF91CF911F910F91FF90EF90BF
:102A5000DF90CF90BF90AF9008950F939C01CB0172
:102A6000233F4CE5340759F1A8F4283DFCE53F0726
:102A700001F1293D4CE53407D1F1273D3C4591F466
:102A800006E221EE41EE67ED7CE50E94A21480E0B3
:102A90000F910895253FFCE53F07E9F0B0F0263F90
:102AA0003C45F9F0FC018281882339F11092D20271
:102AB000EFCF07E225EE45EE68ED7CE5E6CF06E2D6
:102AC00021EE40EE63EF7CE5E0CF07E225EE44EE39
:102AD00064EF7CE5DACF06E221EE42EE65EF7CE5BD
:102AE000D4CF07E225EE46EE66EF7CE5CECF08E2D6
:102AF00021E045EE69ED7CE5C8CF81E0C9CFCF93F9
:102B0000DF93EC01FB018281882309F419C1C230F3
:102B1000FCE5DF07C0F1C6319CE5D90730F09E0126
:102B20002A5F3C452930310570F50E94432390937C
:102B3000A8058093A705C031ECE5DE0709F4CFC0F6
:102B400008F05BC0C8308CE5D80709F4B6C088F53A
:102B5000C430ECE5DE0709F4A8C0C0F4C2308CE54F
:102B6000D80709F49CC08091A7058260C330DC457A
:102B700009F498C08091A7059091A8050E9451235F
:102B80000E94931D80E0DF91CF9108958091A70569
:102B90008061C630ECE5DE0709F484C08091A705AA
:102BA0008860C730DC4508F47DC08091A70580624D
:102BB00079C0CC308CE5D80709F489C070F48091D5
:102BC000A7058C60CA30ECE5DE0709F46BC008F499
:102BD00078C08091A7058E7F65C0CE308CE5D80780
:102BE00009F479C08091A7058B7FCF30DC4508F4CC
:102BF00059C08091A7058F7E55C0CB3FECE5DE071D
:102C000009F457C030F5C3318CE5D80709F46FC01B
:102C100078F4C131ECE5DE0709F465C0C231DC456A
:102C200009F0A8CF0E94931D8091A7058F773AC025
:102C3000C5318CE5D80709F462C008F476C08091EC
:102C4000A8058160CA3FDC4509F094CF8093A805B0
:102C500091CFCF3FFCE5DF0709F44DC088F48091A8
:102C6000A8058D7FCD3F9CE5D90781F38091A8050C
:102C70008E7FCE3FDC4550F38091A8058360E6CF80
:102C8000C130FDE5DF0709F459C008F444C080E015
:102C9000C230DD4509F06ECF0E94CF236BCF80910B
:102CA000A70581608093A70565CF8091A705846003
:102CB000F9CF8091A8058260C9CF8091A705806473
:102CC000F1CF0E94931D8091A7058068EBCF809182
:102CD000A7058D7FE7CF8091A705877FE3CF809100
:102CE000A7058F7DDFCF8091A7058F7BDBCF8091FC
:102CF000A705837FD7CF8091A8058C7FA7CF809130
:102D0000A70582FB992790F921E0922790FB82F991
:102D100090FB83F9C7CF8091A805982F909591706B
:102D20008E7F892B90FB81F991CF0E94931D90910A
:102D3000A705892F97FB87F98058B4CF81E0ACCFE6
:102D400081E021CFCF93DF93EB0186319C4511F5D4
:102D50000E948E229A81992399F08A7A91E009F44F
:102D600090E09093D302811109C089E20E94692208
:102D70000E94CD2280E0DF91CF91089585E3F6CFC8
:102D80008091D302811104C089E20E947022F0CFA9
:102D900085E3FBCF81E0EFCF1092B9008CE0809308
:102DA000B8000895EF92FF920F931F93CF93DF9394
:102DB000182FEB011092BC0084EA8093BC000E94A3
:102DC000AB247C018091BC0087FF27C08091B900B3
:102DD000887F883029F08091B900887F8031D9F5CB
:102DE0001093BB0084E88093BC000E94AB248C014C
:102DF0008091BC0087FF24C02091B900287F90E01B
:102E000080E02831B1F081E090E0203411F490E0CE
:102E100080E09195819591090CC0CF3FDC0791F23C
:102E20000E94AB248E199F098C179D0758F28EEFD4
:102E30009FEFDF91CF911F910F91FF90EF90089539
:102E4000CF3FDC07A9F20E94AB24801B910B8C17AB
:102E50009D0770F2ECCF8FEF9FEFEBCF0F931F9397
:102E6000CF93DF93EB018093BB0084E88093BC0099
:102E70000E94AB248C018091BC0087FF11C020917F
:102E8000B900287F81E090E0283211F490E080E0E2
:102E9000919581959109DF91CF911F910F9108959F
:102EA000CF3FDC0741F30E94AB24801B910B8C17B2
:102EB0009D0708F38EEF9FEFEECFCF92DF92EF9258
:102EC000FF920F931F93CF93DF936B018A017901D8
:102ED000B9010E94D216E6010C0D1D1DC017D107C5
:102EE00061F424E92093BC00DF91CF911F910F91F1
:102EF000FF90EF90DF90CF90089597FDF2CFB7014C
:102F000089910E942E17EACFCF92DF92EF92FF9223
:102F10000F931F93CF93DF93C62F6A017901B801F6
:102F20000E94D21697FD0CC0B8018C2F0E942E175C
:102F3000E601EC0CFD1CCE15DF0511F097FF0CC06F
:102F400024E92093BC00DF91CF911F910F91FF9056
:102F5000EF90DF90CF900895B80189910E942E17CD
:102F6000EACF84E98093BC0008958EE14A9B02C0B9
:102F70008150E1F74A9BFECF08955A9880E28A95E6
:102F8000F1F75A9A0895FC013BE03A95F1F720E0F9
:102F900090E080E031E040E14A95F1F7880F4A9BEC
:102FA00002C08160232742E04A95F1F7000040E12A
:102FB0004A95F1F79F5F6913EECF90E19A95F1F78B
:102FC00099B132E03A95F1F7000040E14A95F1F706
:102FD00092FB992790F992272081920F9083089570
:102FE000EF92FF920F931F93CF93DF930F92CDB782
:102FF000DEB719828C017C01E60EF11C0E151F054F
:1030000061F481E09981911180E00F90DF91CF917F
:103010001F910F91FF90EF9008950E94B51768E0FF
:10302000CE0101960E94C317F80181938F01E6CF6C
:103030009093D6028093D5026093D402529A5A9A02
:1030400008959093D6028093D5026093D40252984B
:103050005A9AEA9AE9E6F0E080818F7C80830895AD
:103060006150770B91E001C0990F6A95EAF720E073
:1030700031E0911108C0222391F05A9A80E28A959A
:10308000F1F75A980895492F482339F05A9A23277F
:1030900040E24A95F1F79695ECCF5A98F9CF5A98B5
:1030A000EDCFFF920F931F93CF93DF93EC018C0131
:1030B000060F111DC017D10731F4DF91CF911F9179
:1030C0000F91FF900895F9900E94BD1768E08F2D31
:1030D0000E943018EFCF1F920F920FB60F9211245B
:1030E0000F931F932F933F934F935F936F937F9310
:1030F0008F939F93AF93BF93EF93FF93CF93DF9300
:103100000F92CDB7DEB719820E94B51767E0CE01E6
:1031100001960E94C317082F069506950695982FCD
:1031200092959570202F2570920F292F23709695D8
:1031300096958770920F891344C08981811141C08F
:103140008091D4028017E8F120E12A95F1F75A9A8C
:10315000529A82E08A95F1F700C0A8E00A9FC00168
:1031600011240091D5021091D602080F191F5A9808
:10317000F8016581662321F0868197810E945118AC
:103180000E94BD17F0E1FA95F1F75A9852985A9AB1
:1031900020E12A95F1F7D80112966C9112976623D7
:1031A00031F113968D919C910E94F017D801ED9109
:1031B000FC91882311F088E001C082E080830E94A6
:1031C000B5170F90DF91CF91FF91EF91BF91AF9124
:1031D0009F918F917F916F915F914F913F912F912F
:1031E0001F910F910F900FBE0F901F901895ED91AA
:1031F000FC91E1CF0F931F93CF93DF932091D402E3
:10320000281719060CF471C08C0193E0000F111FF0
:103210009A95E1F7C091D502D091D602C00FD11F87
:10322000F894529A5A9825E02A95F1F70000982FC1
:10323000969595708570980F892F837096959695C1
:10324000980F092B0E94BD1700C067E0802F0E94D5
:10325000301880E18A95F1F752985A9A4A9B17C024
:1032600087E090E04A9915C06D81662321F18E8137
:103270009F810E94F01781111EC0529A5A9AE881CC
:10328000F98182E08083789482E090E00DC000C0F4
:10329000E5CF019771F4529A5A9AE881F98181E059
:1032A0008083789481E090E0DF91CF911F910F911E
:1032B000089500C0D7CF0E94B51720E22A95F1F7F4
:1032C0005A98529A80E18A95F1F76A81662321F033
:1032D0008B819C810E9451180E94BD17E881F98161
:1032E0001082789490E080E0DFCF84E090E0DCCF43
:1032F0009093DC028093DB020895E091DB02F09171
:10330000DC02309721F00190F081E02D099480E0FB
:103310000895E091DB02F091DC02309721F0028009
:10332000F381E02D099408952091D9023091DA02B9
:103330002817390771F09093DA028093D902E0914F
:10334000DB02F091DC02309721F00680F781E02D5E
:10335000099408952091D7023091D802281739078F
:1033600071F09093D8028093D702E091DB02F09144
:10337000DC02309721F00084F185E02D0994089556
:1033800085B7806885BF85B7806885BF0895089533
:1033900008950C94C7190C9452050E94C0190E94FC
:1033A000C8190C94C9190C943C090E94A2240E94CB
:1033B000FF0780E00E94B7120E941A250E94741035
:1033C0000C94CB19AF92BF92CF92DF92EF92FF9203
:1033D0000F931F93CF93DF93CDB7DEB72A970FB626
:1033E000F894DEBF0FBECDBF0E948208B82E0E94A7
:1033F000D319882309F465C08EEDC82E82E0D82E3B
:1034000010E000E0A02E802F0E94F307E82EF601C6
:10341000F1906F01F81609F44EC080915E0381FDB2
:103420000E94F9079F2D9E2580E0FF24F394292F09
:103430002F21E1F18E83AF82EF2081E009F480E05B
:1034400088870E94AB248160782F9A8789874E8174
:103450005F8168858A850E94831AF801E252FD4FD8
:103460008081F826F0820E94E9100E947914B11040
:103470000E944F130E947D199091DD02891791F1EE
:103480000E947D198093DD022A960FB6F894DEBF64
:103490000FBECDBFDF91CF911F910F91FF90EF90A5
:1034A000DF90CF90BF90AF900C94B9058F5FFF0C69
:1034B000863009F0BCCF0F5F1F4F0A30110509F0AD
:1034C000A1CF8FEF89838A831B820E94AB24816006
:1034D000782F9D838C8349815A816B818D810E94D5
:1034E000831AC1CF2A960FB6F894DEBF0FBECDBFA8
:1034F000DF91CF911F910F91FF90EF90DF90CF90D0
:10350000BF90AF900895CF93DF93CDB7DEB72B97E1
:103510000FB6F894DEBF0FBECDBF4F8358876987C3
:103520007A878B871E821D8285E0FE013796DE0139
:10353000119601900D928A95E1F749815A816B812C
:103540007C818D819E812B960FB6F894DEBF0FBED5
:10355000CDBFDF91CF910C94FA1FFC018081918146
:103560000C943B22CF93C82F882309F43FC08CEFE3
:103570008C0F813AA0F46C2F80912F019091300133
:103580000E94E623882329F08C2F0E9470220E943B
:10359000CD228C2F0E946922CF910C94CD2280E203
:1035A0008C0F883048F4C77081E001C0880FCA953D
:1035B000EAF70E949122F0CFEBE5EC0FE33040F404
:1035C000F0E0E55DFD4F808190E0CF910C9494197F
:1035D000C85AC73158F4EC2FF0E0EE0FFF1FE3504C
:1035E000FE4F80819181CF910C94AA19CF910895BB
:1035F000882329F19CEF980F913A20F40E947022C1
:103600000C94CD2290E2980F983050F4877091E09E
:1036100001C0990F8A95EAF7892F0E949722F0CF6F
:103620009BE5980F933020F490E080E00C9494197F
:10363000885A873120F490E080E00C94AA1908950C
:10364000CF93C82F0E94B21AC93349F42FEF87EEE7
:1036500093E0215080409040E1F700C000008C2FA3
:10366000CF910C94F81A882321F00E9491220C9497
:10367000CD220895882321F00E9497220C94CD2218
:103680000895BF92CF92DF92EF92FF920F931F9314
:10369000CF93DF936C01D62FC72FFC0105810295D4
:1036A0000F70128111110E94AE220E948722E82E13
:1036B000882391F01123E9F08C2F807F803421F052
:1036C00080E28D0F8830A8F082E00E9418230E94CB
:1036D000872291E0E82EE926BC2EB2949FE0B92221
:1036E000FBE0FB15A8F1EB2DF0E0E35FFF4C0C9441
:1036F0001A2CE12CF1CF0C2F0F70C07F11F0029526
:10370000007F1123A9F0002359F080E28D0F88304B
:1037100010F0D11109C0802F0E9491220E94CD2269
:103720008D2F0E94B21A14C0802F0E94A122F6CFC2
:103730008D2F0E94F81A002359F080E28D0F8830F7
:1037400010F0D1112CC0802F0E9497220E94CD2210
:103750002B2D2850330B2430310520F40E947D1985
:103760000E94B905EE2009F483C10E94832280FDE6
:103770007FC1F60112820E947D220E940621C601AD
:103780000E94591D0E947D22DF91CF911F910F91C0
:10379000FF90EF90DF90CF90BF900C942721802F67
:1037A0000E94A722D3CF2C2F2F70F22EC07FC032C1
:1037B00019F0F29480EFF822DD2369F0D13049F15D
:1037C000112391F1002351F1F601858180FFA8CFEB
:1037D0008F70858323C0112381F0011106C00E94E0
:1037E000B4228F290E94331BB3CF0130C1F70E944E
:1037F000B4228F290E94BA22ABCF011106C00E94C9
:10380000C3228F2D0E943A1BA3CF013009F4A0CF11
:10381000F6CF112329F0063008F09ACF8F2DE2CF92
:10382000053008F095CFEDCF002359F3D93349F493
:10383000FFEF27EE33E0F15020403040E1F700C0C9
:1038400000008D2F0E94F81A83CF8C2F86958695C5
:10385000837069F0813009F07BCF8D2F9C2F93709E
:10386000111102C090E080E00E94AA1971CF8D2F43
:103870009C2F9370111102C090E080E00E94941977
:1038800067CF8C2F837009F041C0111161CF4D2F8C
:10389000429546954770440F440F0D2F0F7010E06E
:1038A00030E020E0042E04C0000F111F221F331F40
:1038B0000A94D2F760E070E0CB01D4FF0FC06FE054
:1038C00070E080E090E004C0660F771F881F991FAA
:1038D0004A95D2F76095709580959095C695C69556
:1038E000C370602B712B822B932BC23049F058F49C
:1038F000C13019F00E94B8202BCF0E94A62028CFFB
:103900000E94CA2025CF0E94A42022CF8695112391
:1039100011F08C2F8170882309F41ACF4D2F429516
:1039200046954770440F440F0D2F0F7010E030E0A4
:1039300020E0042E04C0000F111F221F331F0A9421
:10394000D2F760E070E0CB01D4FF0FC06FE070E011
:1039500080E090E004C0660F771F881F991F4A958A
:10396000D2F76095709580959095C695C695C37071
:10397000602B712B822B932BC23049F058F4C1304D
:1039800019F00E947D21E4CE0E946B21E1CE0E94BD
:103990008F21DECE0E94E020DBCECF70112329F0F4
:1039A0008C2F0E9406218D2F1DCF8D2F0E943A1B38
:1039B0008C2F0E942721CCCED23F89F160F4D03FDA
:1039C000C9F0D13F29F1112309F442C00111A8CE59
:1039D0008C2F8F7121C0D33F39F1D43FA1F7112330
:1039E00069F1CF718C2F0E94062163E08C2F0E9419
:1039F0000323AECE112341F0053008F0A9CE8C2F61
:103A00008F710E944A21A4CE063008F0A1CEF7CFD4
:103A10008C2F8F71112369F20E94062199CE8C2F71
:103A20008F711123C9F3C5CF112329F08C2F8F710A
:103A30000E94F1208DCE0E94EC208ACE81E00E946F
:103A40001823023008F484CE82E00E94182380CE2E
:103A5000002359F0D93309F0F4CE8FEF97EEE3E06D
:103A600081509040E040E1F7EACE8C2F8F71A1CFDA
:103A7000DF91CF911F910F91FF90EF90DF90CF904A
:103A8000BF9008950F931F93CF93DF93EC0168814C
:103A900079818A810E9445228C010E94A1210E9485
:103AA000A320B801CE01DF91CF911F910F910C940B
:103AB000411BCF93DF93EC018B819C81892B29F0F3
:103AC0008881998189238F3F59F4DF91CF9108959F
:103AD000CE010E94421DCE01DF91CF910C949D0535
:103AE000CE010E94D1058111F3CF0E948722882345
:103AF00061F38A81882349F382E0DF91CF910C94AE
:103B000018230E94AE220E94B1220E94CD2290E092
:103B100080E00E94941990E080E00C94AA190E9421
:103B200077220C94811D0E949E220C948F1DE92FF8
:103B3000E295EF70E250EE3070F4F0E0E75EFF4C9B
:103B40000C941A2C803F19F020F4883E20F481E078
:103B50000895843FE1F380E00895883EC0F3813FFB
:103B6000D1F7F5CF93FB882780F908950E943B2277
:103B70000C94971DCF93DF9300D000D00F92CDB758
:103B8000DEB70F900F900F900F900F90DF91CF91B5
:103B90000895CF93DF9300D000D000D0CDB7DEB72B
:103BA00026960FB6F894DEBF0FBECDBFDF91CF9142
:103BB00008951F93CF93DF93C091E90216E080919F
:103BC000EA028C1304C0DF91CF911F910895D0E0D9
:103BD0001C9FF0011D9FF00D1124E551FD4F408108
:103BE000518162817381848195810E94C91D2196D2
:103BF000C770E5CF40911B0350911C0360911D03DA
:103C000070911E0380911F03909120030C94C91D95
:103C10001F93CF93DF9380912003807FA9F480913D
:103C20001D03882389F08091E902C091EA02609126
:103C30001B0370911C03A0911E03B0911F03D62F8C
:103C4000D72316E0C81304C0DF91CF911F910895C8
:103C500090E0109711F0DF3F19F401968770F2CFD2
:103C6000189F9001199F300D1124F901E551FD4F66
:103C700041814713F2CF40814613EFCF428141117A
:103C8000ECCF438154814A1B5B0B4436510528F726
:103C9000809120038F70806180932003F901E051AF
:103CA000FD4F80818F70806180838BE193E00E9463
:103CB000591DDF91CF911F910C94D91DAF92BF92E6
:103CC000CF92DF92EF92FF920F931F93CF93DF93E8
:103CD000CDB7DEB761970FB6F894DEBF0FBECDBF8C
:103CE0008C0185E0F801DE011D9601900D928A9508
:103CF000E1F7F80140815181E2808BE1C82E83E039
:103D0000D82E60911E0370911F036115710509F48F
:103D10004FC190911B0320911C03892F82238F3F59
:103D200009F446C1A380B480F0901D03F501E61BA1
:103D3000F70BFF2009F40AC180912003382F307F50
:103D4000E436F10508F0C0C0311179C0FE2C25130E
:103D500023C0941321C0E1101FC08F708061809335
:103D600020030E94FA1DC6010E94591D8091200364
:103D7000F80185838F2D61960FB6F894DEBF0FBED4
:103D8000CDBFDF91CF911F910F91FF90EF90DF900A
:103D9000CF90BF90AF900895AB2829F0842F852352
:103DA0008F3F09F021C180E0F82FF170DF2E80FFF6
:103DB0003CC08091E9022091EA0236E0821315C0EE
:103DC0004D875E878D859E850E943B22292F2295F7
:103DD0002F702230F0F0243018F59F70F1F0F801C8
:103DE0009581907FD1F4D12C1EC090E0389FF001D6
:103DF000399FF00D1124E551FD4F6181651306C017
:103E00006081641303C062816E110FC001968770D8
:103E1000D5CF9F7011F0882331F3805E883018F37E
:103E2000C8010E94591DFD2CA5CFEE2009F4A2CF98
:103E300080912003816080932003F12C9BCF251378
:103E400014C0941312C0E11010C0F8018583C8019A
:103E50000E94591D86E0F801ABE1B3E001900D929C
:103E60008A95E1F70E94FA1D85CF4D875E878D8583
:103E70009E850E94B61D882319F1EE2009F18091DC
:103E80002003803270F020911B0330911C0338878F
:103E90002F831986BB86AA868C87CE0107960E943F
:103EA000591D86E0F801ABE1B3E001900D928A95CF
:103EB000E1F70E94081E0E94FA1DFF24F3945ACFD6
:103EC000C8010E94591DF9CF311113C07A2DB98A4A
:103ED000A88A6E2D89890E94BA1D8BE193E00E9409
:103EE000591D86E0F60111928A95E9F70E94FA1DA4
:103EF000A4CF25130FC094130DC0E1100BC0F8011F
:103F00008583C8010E94591D86E0F60111928A95A9
:103F1000E9F730CF4D875E878D859E850E94B61D5F
:103F2000882371F2EE2061F280912003803208F440
:103F3000B8CF20911B0330911C033A8329831B8245
:103F4000BD82AC828E83CE010196A9CFE436F10505
:103F500010F5FE2CEE2009F4B3CF25130BC09413FB
:103F600009C086E0F801ABE1B3E001900D928A95BB
:103F7000E1F700CF4D875E878D859E850E94B61D37
:103F800081118FCF80912003816080932003C8012D
:103F90000E94591DEFCE7A2DB98AA88A6E2D898983
:103FA0000E94BA1D86E0F60111928A95E9F75ACF70
:103FB000EE2009F485CF4D875E878D859E850E9412
:103FC000B61DF82E882309F47BCF86E0F801ABE11B
:103FD000B3E001900D928A95E1F78BE193E00E94A6
:103FE000AD1A0E94081E3ECF81E08E25DDCE84E60C
:103FF00090E008951F93CF93DF93CDB7DEB72C9752
:104000000FB6F894DEBF0FBECDBF4F8358876987C8
:104010007A878B879C87CE0107960E945E1E882335
:1040200069F08A859B85892B39F04F815885842FCB
:1040300085238F3F09F071C016E05FC086E0FE0166
:104040003796DE01119601900D928A95E1F78A85E7
:104050009B85892B89F38F81988589238F3F61F315
:104060002091EA0230E0C9010196877099274091BA
:10407000E9024817190671F40E94931D1092EA0292
:104080001092E90286E0EBE1F3E0DF011D928A95F0
:10409000E9F7D2CF96E0929FD001939FB00D112403
:1040A000A551BD4FFE01319601900D929A95E1F711
:1040B0008093EA020E94D91DBFCF819FC0011124C5
:1040C00085519D4F0E945E1E8823E9F0E091E90230
:1040D0001E9FF0011124E551FD4F40815181628105
:1040E0007381848195810E94C91D8091E90290E0CD
:1040F0000196877099278093E9028091E902909157
:10410000EA028913DACF2C960FB6F894DEBF0FBE01
:10411000CDBFDF91CF911F91089569857A858B85F9
:104120009C850E94C91D88CF08950C9494200E94FC
:10413000952060934D0370934E0380934F039093AB
:1041400050030C94811D08950C9497200F931F9396
:1041500000914D0310914E0320914F033091500375
:10416000602B712B822B932B1F910F910C94972016
:104170000F931F9300914D0310914E0320914F0315
:104180003091500360237123822393231F910F9159
:104190000C9497200F931F9300914D0310914E03A1
:1041A00020914F0330915003602771278227932776
:1041B0001F910F910C9497200C9494200C94DC2068
:1041C0000E94DE206093490370934A0380934B035F
:1041D00090934C030C94811D60E070E0CB010C9433
:1041E000E0200F931F9341E050E060E070E08A010F
:1041F0009B0104C0000F111F221F331F8A95D2F7A5
:10420000C901B8011F910F910C94E0200F931F93E7
:1042100041E050E060E070E004C0440F551F661FAD
:10422000771F8A95D2F78091490390914A03A09114
:104230004B03B0914C038A019B01082B192B2A2BAD
:104240003B2BC901B8011F910F910C94E0200F93F3
:104250001F9341E050E060E070E004C0440F551F40
:10426000661F771F8A95D2F7CB01BA0160957095CA
:10427000809590950091490310914A0320914B033A
:1042800030914C0360237123822393231F910F915C
:104290000C94E0200F931F9341E050E060E070E049
:1042A00004C0440F551F661F771F8A95D2F780916F
:1042B000490390914A03A0914B03B0914C038A01AA
:1042C0009B01082719272A273B27C901B8011F91FD
:1042D0000F910C94E0200F931F93009149031091CC
:1042E0004A0320914B0330914C03602B712B822B9E
:1042F000932B1F910F910C94E0200F931F9300912B
:10430000490310914A0320914B0330914C036023E1
:104310007123822393231F910F910C94E0200F931C
:104320001F930091490310914A0320914B03309150
:104330004C0360277127822793271F910F910C94BC
:10434000E0200895E92FEE0FE90FEE0F8E0F982F62
:10435000977041E001C0440F9A95EAF786958695DB
:10436000869595E0899FF0011124EF5DFC4F30E0C8
:1043700020E070E05191DF011197CB01022E02C0C5
:10438000969587950A94E2F7817081958527842315
:1043900085278C932F5F3F4F2530310559F70895BE
:1043A000E92FEE0FE90FEE0F8E0F982F977086957D
:1043B0008695869525E0829FF0011124EF5DFC4FE4
:1043C00050E040E080E0219130E0092E02C03695B7
:1043D00027950A94E2F721703327042E01C0220F9B
:1043E0000A94EAF7822B4F5F5F4F4530510559F72A
:1043F0000895BF92CF92DF92EF92FF920F931F9397
:10440000CF93DF938C01C0904903D0904A03E09092
:104410004B03F0904C0380914D0390914E03A0917B
:104420004F03B0915003C82AD92AEA2AFB2ACFE1C8
:10443000D0E0BC2ED701C6010C2E04C0B695A795BE
:10444000979587950A94D2F780FD0EC0219788F73B
:10445000B12C8B2DDF91CF911F910F91FF90EF9099
:10446000DF90CF90BF900895B8018C2F0E9427064F
:10447000019761F3EECFCF93DF93EC010E94F92116
:10448000BE01DF91CF910C9427061F93CF93DF934A
:10449000EB019091E802992331F0CB01DF91CF91AC
:1044A0001F910C943B22882379F0CB010E94F921C3
:1044B000182F682FCE010E94A221BE01812FDF910B
:1044C000CF911F910C942706CB010E94D021182F69
:1044D000F4CF682F80912F01909130010C941C240F
:1044E000682F80912F01909130010C941E248091AF
:1044F0002F01909130010C942024809151038595D7
:1045000085958595089580915103877008959091C0
:104510005103977081E009F480E0089580915D0374
:10452000089590915D03892B80935D030895809594
:1045300090915D03982390935D03089510925D031D
:10454000089590915C03892B80935C030895809576
:1045500090915C03982390935C03089510925C0300
:10456000089510925B030895809152030895089571
:104570000C94B72290915203981721F08093520324
:104580000C94B822089580915203882329F0109248
:10459000520380E00C94B8220895E0912F01F0912D
:1045A000300180915D038083E0912F01F091300113
:1045B000808190915C03892B8083E0912F01F091A1
:1045C0003001808190915B03892B8083909152030D
:1045D000992381F0E0912F01F09130018081892BA6
:1045E000808380912F01909130010E94D42381110A
:1045F0000E94C32280912F01909130010C9489195F
:1046000008950C94002398E0899F90011124622B57
:10461000609351030E9406218091510385958595F1
:1046200085950C9401231092510380E00C94012392
:10463000909151038095892380935103282F2770EF
:1046400071F4282F082E000C330B9217130639F043
:104650008595859585950E9427210C9413230895AF
:1046600090E080E00E94672F21E08C3E9E4F09F091
:1046700020E0822F089582E090E00C94592F83E08F
:1046800090E00C94592FCF9384E090E00E94592F32
:10469000C82F81E290E00E94592F982F8C2FCF9144
:1046A0000895CF93C92F682F84E090E00E946D2F6A
:1046B0006C2F81E290E0CF910C946D2FAB01BC0187
:1046C0008FE090E00C947F2FAB01BC0183E190E080
:1046D0000C947F2F60E070E0CB010C94642360E0C9
:1046E00070E0CB010E945E230C946A236CEE7EEF97
:1046F00090E080E00E948B2F60E082E090E00E94DA
:104700006D2F60E083E090E00E946D2F10924D03CA
:1047100010924E0310924F031092500360E084E019
:1047200090E00E946D2F60E081E290E00E946D2F8A
:1047300060E085E090E00E946D2F60E086E090E010
:104740000E946D2F6FEF87E090E00E946D2F40E098
:1047500050E0BA0188E090E00E947F2F60E08DE099
:1047600090E00E946D2F40E050E0BA0188E190E0B7
:104770000E947F2F60E087E190E00E946D2F40E073
:1047800050E0BA018CE190E00E947F2F60E080E26F
:1047900090E00E946D2F0C946F230C947623682F69
:1047A0008EE090E00C946D2F9C012E5F3F4FAC018A
:1047B000485F5F4F80E02417350709F40895F90139
:1047C00091919F019923B9F38F5FF5CF662349F04B
:1047D000FC01329608962191261729F0E817F9076F
:1047E000D1F780E0089581E008959C01FC013296A4
:1047F0009FEF80E04191461751F09F3F19F441111E
:1048000001C0982F8F5F8630A9F79F3F09F4089564
:10481000290F311D97FD3A95F90162830895FC0136
:10482000329608962191261303C0DF0111971C923E
:10483000E817F907B9F708950C94F5230C940F24A1
:10484000029626E0FC0111922A95E9F70895089551
:1048500008950C9428240E9429248091AD05843069
:1048600049F110925F0388E190E020E40FB6F894DC
:10487000A895809360000FBE2093600080E00E94A6
:10488000B9050E94292483B7817F846083BF83B7E1
:10489000816083BF7894889583B78E7F83BF0FB67E
:1048A000F894A895809160008861809360001092D0
:1048B00060000FBE08950895CF930E9427240E94A0
:1048C00082080E945B24C0E08C2F0E94F3078111B4
:1048D00005C0CF5FCA30C1F7CF91089581E0FCCF0A
:1048E00008950C9470240E94931D0E947D190E94CB
:1048F000B9050C9471241F921FB61F9211248F9337
:104900009F93AF93BF9380915F03811113C08091F8
:10491000A3059091A405A091A505B091A605419687
:10492000A11DB11D8093A3059093A405A093A50597
:10493000B093A605BF91AF919F918F911F901FBE1D
:104940001F90189582E084BD93E095BD9AEF97BDC6
:1049500080936E0008952FB7F8948091A3059091ED
:10496000A405A091A505B091A6052FBF08952FB766
:10497000F8946091A3057091A4058091A50590918C
:10498000A6052FBF08959C014FB7F8948091A30509
:104990009091A405A091A505B091A6054FBF821BDB
:1049A000930B089578941F921FB61F9211248F9332
:1049B0009F93AF93BF938091A3059091A405A0917D
:1049C000A505B091A6050196A11DB11D8093A30573
:1049D0009093A405A093A505B093A605BF91AF91B0
:1049E0009F918F911F901FBE1F90189581E080931B
:1049F000E00080E28093D8001092C9008FE19EE42D
:104A00000197F1F700C0000087E090EBDC01809394
:104A1000B6059093B705A093B805B093B90588E1A2
:104A20009CE00FB6F894A895809360000FBE909319
:104A30006000FFCF0E943023811102C00E94CD236D
:104A40000E943B2380935E030E9443239093A8051A
:104A50008093A7050E943F23682F70E090E080E0DC
:104A60000E94A4206091490370914A0380914B03F6
:104A700090914C030C94DE20809168030895089572
:104A8000CF93DF9300D00F92CDB7DEB79091AD05F5
:104A9000943019F589837B836A8382E08093E900EF
:104AA0008FEF9091E800815095FD06C095ED9A95A5
:104AB000F1F700008111F5CF8091E80085FF0DC06E
:104AC00050E040E063E070E0CE0101960E943327A1
:104AD0008091E8008E778093E8000F900F900F9000
:104AE000DF91CF910895BC0184E00C944025BC0176
:104AF00083E00C944025CF93DF93EC0181E0809319
:104B0000E9008FEF9091E800815095FD06C095ED8A
:104B10009A95F1F700008111F5CF8091E80085FFAB
:104B200014C050E040E068E070E0CE010E943327FE
:104B30008091E8008E778093E80088E0FE01A0E68F
:104B4000B3E001900D928A95E1F7DF91CF9108953E
:104B50008091AC05811109C00E94C3280E942029C0
:104B60008091E20084608093E20008951092AC0589
:104B70000895089508950C94732442E061EC81E057
:104B80000E943F2842E261EC82E00C943F28809131
:104B9000AF05833009F45FC030F48130C1F1823059
:104BA00009F49BC008958A3009F487C08B3009F45A
:104BB0006DC0893009F04EC08091AE05813209F098
:104BC00049C08091B2059091B305029708F042C0A8
:104BD0008091E800877F8093E8008091E80082FF61
:104BE00035C09091F3008091F200029729F48091F2
:104BF000F1008B7F813021F48091F1008093680374
:104C00008091E8008B778093E8000C947328809162
:104C1000AE05813AF9F48091E800877F8093E8003F
:104C20008091B2059091B305892B61F468E080E62C
:104C300093E070E00E9482278091E8008B77809358
:104C4000E800089560E090E080E0F3CF8091AD054A
:104C50008111C3CF08958091AE05813AD9F7809133
:104C6000B2059091B305892BA9F78091E800877F61
:104C70008093E8008091E80080FFFCCF80913B01A9
:104C80008093F1008091E8008E77BDCF8091AE05D2
:104C9000813201F78091B2059091B305892BD1F64D
:104CA0008091E800877F8093E8000E9473288091BC
:104CB000B00580933B010C94931D8091AE05813229
:104CC00049F68091E800877F8093E8000E9473286E
:104CD0008091B1058093690308958091AE05813A72
:104CE00009F0B8CF8091E800877F8093E800809139
:104CF000E80080FFFCCF80916903C2CF84B7877F33
:104D000084BF0FB6F894A895809160008861809365
:104D10006000109260000FBE80E890E00FB6F8943B
:104D200080936100909361000FBE0E94CD190E9494
:104D3000C3280E9420298091E20084608093E200D1
:104D400078940E94A92B0E94D51981E391E00E94DA
:104D500078198091AD05853019F00E94E219F9CFDC
:104D60000E942B248091AB05882399F30E945C2438
:104D7000882379F30E941D27ECCF0C94BF26292F9E
:104D800033272330310519F168F42130310509F456
:104D90004AC02230310509F44BC090E080E030E099
:104DA00020E028C02132310579F122323105A9F7FE
:104DB00080E490E02DEF38E061157105D9F082E3D1
:104DC00090E02BEC38E061307105A1F0E6CF992737
:104DD0008130910599F0009741F08230910589F07A
:104DE0000397D9F6E2E5F8E002C0EAE7F8E084913B
:104DF00090E09F01FA01318320830895E8E6F8E00E
:104E0000F6CFE8E5F8E0F3CF89E090E020E938E07C
:104E10006115710579F389E090E029EA38E06130A5
:104E2000710541F3BACF82E190E029EB38E0E2CF9F
:104E30008BE390E02EE738E0DDCF80E189BD82E1B1
:104E400089BD09B400FEFDCF8091D8008F7D80938D
:104E5000D8008091E00082608093E0008091E000C3
:104E600081FDFCCF0895AF92BF92CF92DF92FF9267
:104E70000F931F93CF93DF936C01EB018A010E9484
:104E80009228F82E811123C00115110539F0F8017F
:104E900080819181C81BD90BC80ED91EB12CA12CC1
:104EA0002097A9F08091E80085FD22C08091E8005C
:104EB0008E778093E80001151105A1F0F80180813B
:104EC0009181A80EB91EB182A08285E0F82E8F2DA7
:104ED000DF91CF911F910F91FF90DF90CF90BF9006
:104EE000AF9008950E9492288823D1F2F82EEFCF38
:104EF000F60181916F018093F1002197FFEFAF1AC6
:104F0000BF0ACECFFC018091B4059091B5058617FC
:104F10009707A0F06115710529F49091E8009E773C
:104F20009093E80090E06115710551F4911108C06B
:104F30008091E80082FF34C080E00895BC01F2CF88
:104F40008091AD058823C1F18530C1F18091E800E1
:104F500083FD30C08091E80082FDEACF8091E800B7
:104F600080FFE1CF8091F3002091F200382F61158E
:104F7000710519F02830310558F091E028303105DD
:104F800009F090E02091E8002E772093E800CBCF45
:104F900081918093F100615071092F5F3F4FE7CFFE
:104FA0008091AD05882341F0853041F08091E80083
:104FB00083FFBECF81E0089582E0089583E00895E5
:104FC000FC018091B4059091B50586179707A0F074
:104FD0006115710529F48091E8008E778093E800CF
:104FE00090E06115710551F4911108C08091E800BD
:104FF00082FF35C080E00895BC01F2CF8091AD05FD
:105000008823C9F18530C9F18091E80083FD31C062
:105010008091E80082FDEACF8091E80080FFE1CF37
:105020008091F3002091F200382F6115710519F07D
:105030002830310558F091E02830310509F090E032
:105040008091E8008E778093E800CBCF84918093A5
:10505000F1003196615071092F5F3F4FE6CF80918B
:10506000AD05882341F0853041F08091E80083FF51
:10507000BDCF81E0089582E0089583E00895982FE0
:10508000973028F08F708093E90081E00895909325
:10509000E900242F762F50E0981731F07091EC0042
:1050A0002091ED005091F00021FD02C09F5FE8CFFC
:1050B0003091EB003E7F3093EB003091ED003D7F6F
:1050C0003093ED003091EB0031603093EB00709342
:1050D000EC002093ED005093F0002091EE0027FDAE
:1050E000E5CF80E008958091AE0587FF13C08091E1
:1050F000E80082FF06C08091E8008B778093E8008B
:1051000004C08091AD058111F2CF08958091AD0565
:105110008823D9F38091E80080FFF8CF8091E800E0
:105120008E77ECCF2091E4003091E50095E6A9015F
:105130002091EC00822F817020FF06C08091E80052
:1051400080FF06C080E008952091E80022FD1AC08B
:105150008091AD05882389F0853089F08091EB003E
:1051600085FD0FC02091E4003091E5004217530700
:10517000F9F29150E1F684E0089582E0089583E029
:10518000089581E008950E9431290E943929E0EEB6
:10519000F0E0808181608083E8EDF0E080818F77AE
:1051A000808319BCA7EDB0E08C918E7F8C938081B9
:1051B0008F7E80831092AC0508950F931F93CF9339
:1051C000DF930E9431290E943929C8EDD0E08881FF
:1051D0008F77888388818068888388818F7D8883A2
:1051E00019BC1092AD051092A9051092AB05109252
:1051F000AA0500EE10E0F80180818B7F8083888112
:105200008160888342E060E080E00E943F28E1EE18
:10521000F0E080818E7F8083E2EEF0E0808181602B
:105220008083808188608083F80180818E7F808385
:10523000888180618883DF91CF911F910F910895BC
:10524000E8EDF0E080818F7E8083E7EDF0E0808103
:105250008160808384E082BF81E08093AC050C9400
:10526000DD28E8EDF0E080818E7F80831092E200FF
:1052700008951092DA001092E10008951F920F92A3
:105280000FB60F9211242F933F934F935F936F9319
:105290007F938F939F93AF93BF93EF93FF938091EF
:1052A000E10082FF0BC08091E20082FF07C0809185
:1052B000E1008B7F8093E1000E94A82B8091DA00AF
:1052C00080FF19C08091D80080FF15C08091DA005E
:1052D0008E7F8093DA008091D90080FF96C080E1B4
:1052E00089BD82E189BD09B400FEFDCF81E08093D4
:1052F000AD050E94A8258091E10080FF19C0809132
:10530000E20080FF15C08091E2008E7F8093E20072
:105310008091E20080618093E2008091D8008062F9
:105320008093D80019BC85E08093AD050E94BA2512
:105330008091E10084FF2BC08091E20084FF27C0B0
:1053400080E189BD82E189BD89B5982F917080FF88
:10535000FBCF8091D8008F7D8093D8008091E100B1
:105360008F7E8093E1008091E2008F7E8093E20047
:105370008091E20081608093E2008091A9058823FA
:1053800009F449C084E08093AD050E94BB2580915B
:10539000E10083FF29C08091E20083FF25C0809156
:1053A000E100877F8093E10082E08093AD05109259
:1053B000A9058091E1008E7F8093E1008091E20059
:1053C0008E7F8093E2008091E20080618093E20012
:1053D00042E060E080E00E943F288091F000886019
:1053E0008093F0000E94B925FF91EF91BF91AF919A
:1053F0009F918F917F916F915F914F913F912F91ED
:105400000F900FBE0F901F90189519BC1092AD050C
:105410000E94B62570CF8091E30087FD93E09093C2
:10542000AD05B3CF1F920F920FB60F9211242F9399
:105430003F934F935F936F937F938F939F93AF931C
:10544000BF93CF93DF93EF93FF93D091E900DF7089
:105450008091EC00C82FC17080FDC0E81092E90077
:105460008091F000877F8093F00078940E94562A04
:105470001092E9008091F00088608093F000CD2BBD
:10548000CF70C093E900FF91EF91DF91CF91BF9171
:10549000AF919F918F917F916F915F914F913F91CC
:1054A0002F910F900FBE0F901F9018951F93CF93C1
:1054B000DF93CDB7DEB7AA970FB6F894DEBF0FBE65
:1054C000CDBF8EEA95E02091F100FC012193CF0140
:1054D000F5E0863B9F07B9F70E94C7258091E80059
:1054E00083FF1EC18091AE059091AF059A3008F000
:1054F00017C1E92FF0E0E95DFF4C0C941A2C8038BD
:1055000099F0823809F00CC18091B2058F70873014
:1055100008F006C18093E9008091EB0085FB8827A5
:1055200080F91092E90006C08091AA059091AB0520
:10553000911182609091E800977F9093E8008093AA
:10554000F1001092F1008091E8008E77E5C0882389
:1055500009F4D3C0823009F0E3C08091B005811115
:10556000D6C08091B2058F702FEF280F263008F03B
:10557000D7C08093E9002091EB0020FFC8C0933092
:1055800031F48091EB0080628093EB00C0C0909179
:10559000EB0090619093EB0021E030E001C0220F1E
:1055A0008A95EAF72093EA001092EA008091EB00D6
:1055B0008860EACF8111B4C01091B0051F77809147
:1055C000E3008078812B8093E3008091E800877F5F
:1055D0008093E8000E9473288091E80080FFFCCF50
:1055E0008091E30080688093E30082E0111183E002
:1055F0008093AD0595C08058823008F091C08091AD
:10560000B0059091B1058C3D23E09207A1F583E0B0
:105610008A838AE289834FB7F894DE01139620E0EB
:105620003EE051E2E32FF0E050935700E49120FF79
:1056300003C0E295EF703F5FEF708E2F90E0EA308D
:10564000C0F0C7968D939D932F5F243159F74FBFBC
:105650008091E800877F8093E8006AE270E0CE01E5
:1056600001960E9482278091E8008B778093E80062
:1056700057C0C096E7CF6091B2057091B305AE01F7
:105680004F5F5F4F0E94BD26BC01892B09F448C0C3
:105690009091E800977F9093E80089819A810E9419
:1056A000E027E1CF8038E1F58091E800877F8093A3
:1056B000E8008091A9058093F10045CF811130C0A9
:1056C0009091B005923060F58091E800877F8093DB
:1056D000E8009093A9050E9473288091A90588236A
:1056E00011F084E005C08091E30087FDFACF81E0EE
:1056F0008093AD050E94BD2513C08091B005813017
:1057000079F481E0933009F080E08093AB0510924A
:10571000E9008091E800877F8093E8000E94732869
:105720008091E80083FF0AC08091E800877F809322
:10573000E8008091EB0080628093EB00AA960FB6A0
:10574000F894DEBF0FBECDBFDF91CF911F910895BA
:105750000895CF938091AD058823A1F0C091E90011
:10576000CF709091EC00892F817090FD80E8C82B5C
:105770001092E9008091E80083FD0E94562ACF70C4
:10578000C093E900CF910895991B79E004C0991F57
:10579000961708F0961B881F7A95C9F7809508958B
:1057A000AA1BBB1B51E107C0AA1FBB1FA617B70747
:1057B00010F0A61BB70B881F991F5A95A9F7809563
:1057C0009095BC01CD01089597FB072E16F4009427
:1057D00007D077FD09D00E94D02B07FC05D03EF4FE
:1057E000909581959F4F0895709561957F4F08958D
:1057F000A1E21A2EAA1BBB1BFD010DC0AA1FBB1FD5
:10580000EE1FFF1FA217B307E407F50720F0A21B46
:10581000B30BE40BF50B661F771F881F991F1A94B3
:1058200069F760957095809590959B01AC01BD01DD
:10583000CF010895EE0FFF1F0590F491E02D09941C
:105840000E94282C332312F48A1B9B0B0C94392CB6
:10585000A29FB001B39FC001A39F700D811D1124B1
:10586000911DB29F700D811D1124911D08950E94FC
:10587000282CB7FF0895821B930B08950E94282CB3
:10588000A59F900DB49F900DA49F800D911D112494
:105890000895B7FF0C943E2C0E943E2C821B930B64
:1058A00008958F929F92AF92BF92CF92DF92EF9224
:1058B000FF92CF93DF93EC01688179818A819B818C
:1058C000611571058105910521F464E279ED8BE59F
:1058D00097E02DE133EF41E050E00E94A12F490114
:1058E0005A019B01AC01A7EAB1E40E943E2C6B0176
:1058F0007C01ACEEB4EFA50194010E944C2CDC01BC
:10590000CB018C0D9D1DAE1DBF1DB7FF03C00197C0
:10591000A109B04888839983AA83BB839F77DF91CD
:10592000CF91FF90EF90DF90CF90BF90AF909F907E
:105930008F9008950E94512C089580E091E00E947C
:10594000512C0895B0E0A0E08093000190930101F4
:10595000A0930201B09303010895FC01415050400F
:1059600030F001900616D1F73197CF0108958827BE
:1059700099270895AEE0B0E0E0ECFCE20C94CE2F65
:105980000D891E898F89988D26E02C831A830983BF
:1059900097FF02C080E090E801979E838D83AE015F
:1059A000455E5F4F698D7A8DCE0101960E94EA2C8B
:1059B0004D815E8157FD0AC02F81388542175307FC
:1059C0000CF49A01020F131FF80110822E96E4E0E6
:1059D0000C94EA2FABE0B0E0E0EFFCE20C94C02FB7
:1059E0007C013B018A01FC0117821682838181FFC1
:1059F000B9C19AE0292ECE0101965C01F70193818D
:105A0000F30193FD859193FF81913F01882309F470
:105A100046C1853239F493FD859193FF81913F0111
:105A2000853229F4B70190E00E94CB2EE7CF912C6C
:105A3000412C512CFFE1F51538F08B3209F188F437
:105A4000803201F1833221F157FC3AC020ED280F5A
:105A50002A3040F556FE1FC0929C200D1124922E34
:105A600006C08D3291F0803379F7689450F8F301D5
:105A700093FD859193FF81913F018111DBCF20C080
:105A8000689451F8689452F8F2CF689453F8EFCFC5
:105A9000689454F8ECCF429C200D1124422E689457
:105AA00055F8E5CF8E3229F456FCF9C0689456F8C3
:105AB000DECF8C3619F4689457F8D9CF8836B9F20E
:105AC000982F9F7D95549330C0F08336A1F1833792
:105AD000C1F1833509F05BC0F801C190D1908F010D
